{
  "contractName": "FreelanceAgreement",
  "abi": [
    {
      "inputs": [
        {
          "internalType": "address",
          "name": "_freelancer",
          "type": "address"
        },
        {
          "components": [
            {
              "internalType": "string",
              "name": "description",
              "type": "string"
            },
            {
              "internalType": "uint256",
              "name": "amount",
              "type": "uint256"
            },
            {
              "internalType": "uint256",
              "name": "deadline",
              "type": "uint256"
            },
            {
              "internalType": "bool",
              "name": "completed",
              "type": "bool"
            },
            {
              "internalType": "bool",
              "name": "approved",
              "type": "bool"
            }
          ],
          "internalType": "struct FreelanceAgreement.Milestone[]",
          "name": "_milestones",
          "type": "tuple[]"
        },
        {
          "internalType": "uint256",
          "name": "_totalAmount",
          "type": "uint256"
        }
      ],
      "stateMutability": "payable",
      "type": "constructor"
    },
    {
      "anonymous": false,
      "inputs": [
        {
          "indexed": false,
          "internalType": "uint256",
          "name": "amountReturned",
          "type": "uint256"
        }
      ],
      "name": "ContractCancelled",
      "type": "event"
    },
    {
      "anonymous": false,
      "inputs": [
        {
          "indexed": true,
          "internalType": "uint256",
          "name": "index",
          "type": "uint256"
        },
        {
          "indexed": false,
          "internalType": "uint256",
          "name": "amountReleased",
          "type": "uint256"
        }
      ],
      "name": "MilestoneApproved",
      "type": "event"
    },
    {
      "anonymous": false,
      "inputs": [
        {
          "indexed": true,
          "internalType": "uint256",
          "name": "index",
          "type": "uint256"
        }
      ],
      "name": "MilestoneSubmitted",
      "type": "event"
    },
    {
      "inputs": [],
      "name": "client",
      "outputs": [
        {
          "internalType": "address",
          "name": "",
          "type": "address"
        }
      ],
      "stateMutability": "view",
      "type": "function"
    },
    {
      "inputs": [],
      "name": "freelancer",
      "outputs": [
        {
          "internalType": "address",
          "name": "",
          "type": "address"
        }
      ],
      "stateMutability": "view",
      "type": "function"
    },
    {
      "inputs": [
        {
          "internalType": "uint256",
          "name": "",
          "type": "uint256"
        }
      ],
      "name": "milestones",
      "outputs": [
        {
          "internalType": "string",
          "name": "description",
          "type": "string"
        },
        {
          "internalType": "uint256",
          "name": "amount",
          "type": "uint256"
        },
        {
          "internalType": "uint256",
          "name": "deadline",
          "type": "uint256"
        },
        {
          "internalType": "bool",
          "name": "completed",
          "type": "bool"
        },
        {
          "internalType": "bool",
          "name": "approved",
          "type": "bool"
        }
      ],
      "stateMutability": "view",
      "type": "function"
    },
    {
      "inputs": [],
      "name": "totalFunded",
      "outputs": [
        {
          "internalType": "uint256",
          "name": "",
          "type": "uint256"
        }
      ],
      "stateMutability": "view",
      "type": "function"
    },
    {
      "inputs": [],
      "name": "totalReleased",
      "outputs": [
        {
          "internalType": "uint256",
          "name": "",
          "type": "uint256"
        }
      ],
      "stateMutability": "view",
      "type": "function"
    },
    {
      "inputs": [
        {
          "internalType": "uint256",
          "name": "index",
          "type": "uint256"
        }
      ],
      "name": "submitMilestone",
      "outputs": [],
      "stateMutability": "nonpayable",
      "type": "function"
    },
    {
      "inputs": [
        {
          "internalType": "uint256",
          "name": "index",
          "type": "uint256"
        }
      ],
      "name": "approveMilestone",
      "outputs": [],
      "stateMutability": "nonpayable",
      "type": "function"
    },
    {
      "inputs": [],
      "name": "cancelContract",
      "outputs": [],
      "stateMutability": "nonpayable",
      "type": "function"
    },
    {
      "inputs": [],
      "name": "getMilestoneCount",
      "outputs": [
        {
          "internalType": "uint256",
          "name": "",
          "type": "uint256"
        }
      ],
      "stateMutability": "view",
      "type": "function"
    }
  ],
  "bytecode": "0x60c06040526040516200105538038062001055833981016040819052620000269162000298565b803410156200007c5760405162461bcd60e51b815260206004820152601560248201527f496e73756666696369656e74204554482073656e74000000000000000000000060448201526064015b60405180910390fd5b6001600160a01b038316620000d45760405162461bcd60e51b815260206004820152601a60248201527f496e76616c696420667265656c616e6365722061646472657373000000000000604482015260640162000073565b336080526001600160a01b03831660a0523460015560005b8251811015620002045760006040518060a0016040528085848151811062000118576200011862000481565b60200260200101516000015181526020018584815181106200013e576200013e62000481565b602002602001015160200151815260200185848151811062000164576200016462000481565b602090810291909101810151604090810151835260008383018190529201829052835460018101855593825290208151919260040201908190620001a9908262000526565b50602082015160018201556040820151600282015560608201516003909101805460809093015115156101000261ff00199215159290921661ffff199093169290921717905580620001fb81620005f2565b915050620000ec565b505050506200061a565b634e487b7160e01b600052604160045260246000fd5b60405160a081016001600160401b03811182821017156200024957620002496200020e565b60405290565b604051601f8201601f191681016001600160401b03811182821017156200027a576200027a6200020e565b604052919050565b805180151581146200029357600080fd5b919050565b600080600060608486031215620002ae57600080fd5b83516001600160a01b0381168114620002c657600080fd5b60208501519093506001600160401b0380821115620002e457600080fd5b818601915086601f830112620002f957600080fd5b8151818111156200030e576200030e6200020e565b6200031f60208260051b016200024f565b8082825260208201915060208360051b8601019250898311156200034257600080fd5b602085015b838110156200046a578051858111156200036057600080fd5b8601601f1960a0828e03820112156200037857600080fd5b6200038262000224565b6020830151888111156200039557600080fd5b8301603f81018f13620003a757600080fd5b602081015189811115620003bf57620003bf6200020e565b620003d2602085601f840116016200024f565b93508084528f6040828401011115620003ea57600080fd5b60005b8181101562000410576040818401015160208287010152602081019050620003ed565b5060006020828601015250508181526040830151602082015260608301516040820152620004416080840162000282565b60608201526200045460a0840162000282565b6080820152855250506020928301920162000347565b508096505050505050604084015190509250925092565b634e487b7160e01b600052603260045260246000fd5b600181811c90821680620004ac57607f821691505b602082108103620004cd57634e487b7160e01b600052602260045260246000fd5b50919050565b601f8211156200052157600081815260208120601f850160051c81016020861015620004fc5750805b601f850160051c820191505b818110156200051d5782815560010162000508565b5050505b505050565b81516001600160401b038111156200054257620005426200020e565b6200055a8162000553845462000497565b84620004d3565b602080601f831160018114620005925760008415620005795750858301515b600019600386901b1c1916600185901b1785556200051d565b600085815260208120601f198616915b82811015620005c357888601518255948401946001909101908401620005a2565b5085821015620005e25787850151600019600388901b60f8161c191681555b5050505050600190811b01905550565b6000600182016200061357634e487b7160e01b600052601160045260246000fd5b5060010190565b60805160a0516109f36200066260003960008181610110015281816102cc0152610706015260008181609d0152818161018601528181610241015261046901526109f36000f3fe608060405234801561001057600080fd5b50600436106100935760003560e01c8063a37dda2c11610066578063a37dda2c1461010b578063ad044f4914610132578063c438b40f1461013b578063e33b7de31461014e578063e89e4ed61461015757600080fd5b8063109e94cf146100985780632b68bb2d146100dc5780637d64b00b146100e65780638f4cf247146100f9575b600080fd5b6100bf7f000000000000000000000000000000000000000000000000000000000000000081565b6040516001600160a01b0390911681526020015b60405180910390f35b6100e461017b565b005b6100e46100f43660046108b9565b6102c1565b6000545b6040519081526020016100d3565b6100bf7f000000000000000000000000000000000000000000000000000000000000000081565b6100fd60015481565b6100e46101493660046108b9565b61045e565b6100fd60025481565b61016a6101653660046108b9565b6107e3565b6040516100d39594939291906108d2565b336001600160a01b037f000000000000000000000000000000000000000000000000000000000000000016146101f15760405162461bcd60e51b815260206004820152601660248201527513db9b1e4818db1a595b9d0818d85b8818d85b98d95b60521b60448201526064015b60405180910390fd5b47806102345760405162461bcd60e51b8152602060048201526012602482015271273790333ab73239903a37903932ba3ab93760711b60448201526064016101e8565b6040516001600160a01b037f0000000000000000000000000000000000000000000000000000000000000000169082156108fc029083906000818181858888f1935050505015801561028a573d6000803e3d6000fd5b506040518181527f2d5f5ed000d42aa6f6fc13400f7d7161cd1bea793fec354b11e3451f9f2b07c39060200160405180910390a150565b336001600160a01b037f000000000000000000000000000000000000000000000000000000000000000016146103395760405162461bcd60e51b815260206004820152601a60248201527f4f6e6c7920667265656c616e6365722063616e207375626d697400000000000060448201526064016101e8565b60005481106103845760405162461bcd60e51b8152602060048201526017602482015276092dcecc2d8d2c840dad2d8cae6e8dedcca40d2dcc8caf604b1b60448201526064016101e8565b6000818154811061039757610397610946565b600091825260209091206003600490920201015460ff16156103fb5760405162461bcd60e51b815260206004820152601b60248201527f4d696c6573746f6e6520616c7265616479207375626d6974746564000000000060448201526064016101e8565b60016000828154811061041057610410610946565b60009182526020822060049190910201600301805460ff19169215159290921790915560405182917f6670b87ece4bf5ff8e422301a14d59d43b4f9d17c2f96c6c37ca8a073efda7f591a250565b336001600160a01b037f000000000000000000000000000000000000000000000000000000000000000016146104d65760405162461bcd60e51b815260206004820152601760248201527f4f6e6c7920636c69656e742063616e20617070726f766500000000000000000060448201526064016101e8565b60005481106105215760405162461bcd60e51b8152602060048201526017602482015276092dcecc2d8d2c840dad2d8cae6e8dedcca40d2dcc8caf604b1b60448201526064016101e8565b6000818154811061053457610534610946565b600091825260209091206003600490920201015460ff166105975760405162461bcd60e51b815260206004820152601760248201527f4d696c6573746f6e65206e6f74207375626d697474656400000000000000000060448201526064016101e8565b600081815481106105aa576105aa610946565b906000526020600020906004020160030160019054906101000a900460ff16156106165760405162461bcd60e51b815260206004820152601a60248201527f4d696c6573746f6e6520616c726561647920617070726f76656400000000000060448201526064016101e8565b6000818154811061062957610629610946565b90600052602060002090600402016001015447101561068a5760405162461bcd60e51b815260206004820152601d60248201527f496e73756666696369656e7420636f6e74726163742062616c616e636500000060448201526064016101e8565b60016000828154811061069f5761069f610946565b906000526020600020906004020160030160016101000a81548160ff021916908315150217905550600081815481106106da576106da610946565b906000526020600020906004020160010154600260008282546106fd919061095c565b925050819055507f00000000000000000000000000000000000000000000000000000000000000006001600160a01b03166108fc6000838154811061074457610744610946565b9060005260206000209060040201600101549081150290604051600060405180830381858888f19350505050158015610781573d6000803e3d6000fd5b50807f939da3b627c123c81fe5aacebf925163337a0d4f8a03724640618078cad24894600083815481106107b7576107b7610946565b9060005260206000209060040201600101546040516107d891815260200190565b60405180910390a250565b600081815481106107f357600080fd5b906000526020600020906004020160009150905080600001805461081690610983565b80601f016020809104026020016040519081016040528092919081815260200182805461084290610983565b801561088f5780601f106108645761010080835404028352916020019161088f565b820191906000526020600020905b81548152906001019060200180831161087257829003601f168201915b50505050600183015460028401546003909401549293909290915060ff8082169161010090041685565b6000602082840312156108cb57600080fd5b5035919050565b60a08152600086518060a084015260005b81811015610900576020818a0181015160c08684010152016108e3565b50600060c0828501015260c0601f19601f830116840101915050856020830152846040830152610934606083018515159052565b82151560808301529695505050505050565b634e487b7160e01b600052603260045260246000fd5b8082018082111561097d57634e487b7160e01b600052601160045260246000fd5b92915050565b600181811c9082168061099757607f821691505b6020821081036109b757634e487b7160e01b600052602260045260246000fd5b5091905056fea264697066735822122076e9d3cbdb7d742de5ab420a8ac55f6d6f26bd15ec0e697673be65e71dc6db7464736f6c63430008130033",
  "immutableReferences": {
    "175": [
      {
        "length": 32,
        "start": 157
      },
      {
        "length": 32,
        "start": 390
      },
      {
        "length": 32,
        "start": 577
      },
      {
        "length": 32,
        "start": 1129
      }
    ],
    "177": [
      {
        "length": 32,
        "start": 272
      },
      {
        "length": 32,
        "start": 716
      },
      {
        "length": 32,
        "start": 1798
      }
    ]
  },
  "source": "// SPDX-License-Identifier: UNLICENSED\r\npragma solidity ^0.8.19;\r\n\r\ncontract FreelanceAgreement {\r\n    struct Milestone {\r\n        string description;\r\n        uint256 amount;\r\n        uint256 deadline;\r\n        bool completed;\r\n        bool approved;\r\n    }\r\n    \r\n    address public immutable client;\r\n    address public immutable freelancer;\r\n    Milestone[] public milestones;\r\n    uint256 public totalFunded;\r\n    uint256 public totalReleased;\r\n    \r\n    event MilestoneSubmitted(uint256 indexed index);\r\n    event MilestoneApproved(uint256 indexed index, uint256 amountReleased);\r\n    event ContractCancelled(uint256 amountReturned);\r\n\r\n    constructor(\r\n        address _freelancer,\r\n        Milestone[] memory _milestones,\r\n        uint256 _totalAmount\r\n    ) payable {\r\n        require(msg.value >= _totalAmount, \"Insufficient ETH sent\");\r\n        require(_freelancer != address(0), \"Invalid freelancer address\");\r\n        \r\n        client = msg.sender;\r\n        freelancer = _freelancer;\r\n        totalFunded = msg.value;\r\n        \r\n        for (uint i = 0; i < _milestones.length; i++) {\r\n            milestones.push(Milestone({\r\n                description: _milestones[i].description,\r\n                amount: _milestones[i].amount,\r\n                deadline: _milestones[i].deadline,\r\n                completed: false,\r\n                approved: false\r\n            }));\r\n        }\r\n    }\r\n\r\n    function submitMilestone(uint256 index) external {\r\n        require(msg.sender == freelancer, \"Only freelancer can submit\");\r\n        require(index < milestones.length, \"Invalid milestone index\");\r\n        require(!milestones[index].completed, \"Milestone already submitted\");\r\n        \r\n        milestones[index].completed = true;\r\n        emit MilestoneSubmitted(index);\r\n    }\r\n\r\n    function approveMilestone(uint256 index) external {\r\n        require(msg.sender == client, \"Only client can approve\");\r\n        require(index < milestones.length, \"Invalid milestone index\");\r\n        require(milestones[index].completed, \"Milestone not submitted\");\r\n        require(!milestones[index].approved, \"Milestone already approved\");\r\n        require(address(this).balance >= milestones[index].amount, \"Insufficient contract balance\");\r\n        \r\n        milestones[index].approved = true;\r\n        totalReleased += milestones[index].amount;\r\n        payable(freelancer).transfer(milestones[index].amount);\r\n        \r\n        emit MilestoneApproved(index, milestones[index].amount);\r\n    }\r\n\r\n    function cancelContract() external {\r\n        require(msg.sender == client, \"Only client can cancel\");\r\n        \r\n        uint256 remainingBalance = address(this).balance;\r\n        require(remainingBalance > 0, \"No funds to return\");\r\n        \r\n        payable(client).transfer(remainingBalance);\r\n        emit ContractCancelled(remainingBalance);\r\n    }\r\n\r\n    function getMilestoneCount() external view returns (uint256) {\r\n        return milestones.length;\r\n    }\r\n}",
  "sourcePath": "C:\\Users\\Kashaf A.Minhas\\Desktop\\Git\\Freelance-chain\\contracts\\contracts\\FreelanceAgreement.sol",
  "compiler": {
    "name": "solc",
    "version": "0.8.19+commit.7dd6d404.Emscripten.clang"
  },
  "schemaVersion": "3.4.16",
  "updatedAt": "2025-05-07T18:48:08.420Z",
  "devdoc": {
    "kind": "dev",
    "methods": {},
    "version": 1
  },
  "userdoc": {
    "kind": "user",
    "methods": {},
    "version": 1
  }
}