{
  "contractName": "JobContract",
  "abi": [
    {
      "inputs": [],
      "stateMutability": "nonpayable",
      "type": "constructor"
    },
    {
      "anonymous": false,
      "inputs": [
        {
          "indexed": false,
          "internalType": "uint256",
          "name": "contractId",
          "type": "uint256"
        }
      ],
      "name": "ContractCompleted",
      "type": "event"
    },
    {
      "anonymous": false,
      "inputs": [
        {
          "indexed": false,
          "internalType": "uint256",
          "name": "contractId",
          "type": "uint256"
        }
      ],
      "name": "ContractCreated",
      "type": "event"
    },
    {
      "anonymous": false,
      "inputs": [
        {
          "indexed": false,
          "internalType": "uint256",
          "name": "contractId",
          "type": "uint256"
        },
        {
          "indexed": false,
          "internalType": "address",
          "name": "raisedBy",
          "type": "address"
        },
        {
          "indexed": false,
          "internalType": "uint256",
          "name": "fee",
          "type": "uint256"
        }
      ],
      "name": "DisputeRaised",
      "type": "event"
    },
    {
      "anonymous": false,
      "inputs": [
        {
          "indexed": false,
          "internalType": "uint256",
          "name": "contractId",
          "type": "uint256"
        },
        {
          "indexed": false,
          "internalType": "uint256",
          "name": "amount",
          "type": "uint256"
        }
      ],
      "name": "FundsDeposited",
      "type": "event"
    },
    {
      "anonymous": false,
      "inputs": [
        {
          "indexed": false,
          "internalType": "uint256",
          "name": "contractId",
          "type": "uint256"
        },
        {
          "indexed": false,
          "internalType": "uint256",
          "name": "amount",
          "type": "uint256"
        },
        {
          "indexed": false,
          "internalType": "address",
          "name": "recipient",
          "type": "address"
        }
      ],
      "name": "PaymentReleased",
      "type": "event"
    },
    {
      "anonymous": false,
      "inputs": [
        {
          "indexed": false,
          "internalType": "uint256",
          "name": "contractId",
          "type": "uint256"
        },
        {
          "indexed": false,
          "internalType": "uint256",
          "name": "amount",
          "type": "uint256"
        },
        {
          "indexed": false,
          "internalType": "address",
          "name": "recipient",
          "type": "address"
        }
      ],
      "name": "RefundIssued",
      "type": "event"
    },
    {
      "anonymous": false,
      "inputs": [
        {
          "indexed": false,
          "internalType": "uint256",
          "name": "contractId",
          "type": "uint256"
        },
        {
          "indexed": false,
          "internalType": "address",
          "name": "signer",
          "type": "address"
        }
      ],
      "name": "Signed",
      "type": "event"
    },
    {
      "anonymous": false,
      "inputs": [
        {
          "indexed": false,
          "internalType": "uint256",
          "name": "contractId",
          "type": "uint256"
        },
        {
          "indexed": false,
          "internalType": "address",
          "name": "approver",
          "type": "address"
        }
      ],
      "name": "WorkApproved",
      "type": "event"
    },
    {
      "anonymous": false,
      "inputs": [
        {
          "indexed": false,
          "internalType": "uint256",
          "name": "contractId",
          "type": "uint256"
        },
        {
          "indexed": false,
          "internalType": "string",
          "name": "workHash",
          "type": "string"
        }
      ],
      "name": "WorkSubmitted",
      "type": "event"
    },
    {
      "inputs": [
        {
          "internalType": "uint256",
          "name": "",
          "type": "uint256"
        }
      ],
      "name": "contracts",
      "outputs": [
        {
          "internalType": "address",
          "name": "client",
          "type": "address"
        },
        {
          "internalType": "address",
          "name": "freelancer",
          "type": "address"
        },
        {
          "internalType": "uint256",
          "name": "bidAmount",
          "type": "uint256"
        },
        {
          "internalType": "uint256",
          "name": "deadline",
          "type": "uint256"
        },
        {
          "internalType": "string",
          "name": "jobTitle",
          "type": "string"
        },
        {
          "internalType": "string",
          "name": "jobDescription",
          "type": "string"
        },
        {
          "internalType": "enum JobContract.Status",
          "name": "status",
          "type": "uint8"
        },
        {
          "internalType": "bool",
          "name": "clientApproved",
          "type": "bool"
        },
        {
          "internalType": "bool",
          "name": "freelancerApproved",
          "type": "bool"
        },
        {
          "internalType": "string",
          "name": "workSubmissionHash",
          "type": "string"
        },
        {
          "internalType": "uint256",
          "name": "fundsDeposited",
          "type": "uint256"
        }
      ],
      "stateMutability": "view",
      "type": "function"
    },
    {
      "inputs": [],
      "name": "disputeFee",
      "outputs": [
        {
          "internalType": "uint256",
          "name": "",
          "type": "uint256"
        }
      ],
      "stateMutability": "view",
      "type": "function"
    },
    {
      "inputs": [
        {
          "internalType": "uint256",
          "name": "",
          "type": "uint256"
        }
      ],
      "name": "escrowBalances",
      "outputs": [
        {
          "internalType": "uint256",
          "name": "",
          "type": "uint256"
        }
      ],
      "stateMutability": "view",
      "type": "function"
    },
    {
      "inputs": [],
      "name": "owner",
      "outputs": [
        {
          "internalType": "address",
          "name": "",
          "type": "address"
        }
      ],
      "stateMutability": "view",
      "type": "function"
    },
    {
      "inputs": [
        {
          "internalType": "uint256",
          "name": "_newFee",
          "type": "uint256"
        }
      ],
      "name": "setDisputeFee",
      "outputs": [],
      "stateMutability": "nonpayable",
      "type": "function"
    },
    {
      "inputs": [
        {
          "internalType": "address",
          "name": "_freelancer",
          "type": "address"
        },
        {
          "internalType": "uint256",
          "name": "_bidAmount",
          "type": "uint256"
        },
        {
          "internalType": "uint256",
          "name": "_deadline",
          "type": "uint256"
        },
        {
          "internalType": "string",
          "name": "_jobTitle",
          "type": "string"
        },
        {
          "internalType": "string",
          "name": "_jobDescription",
          "type": "string"
        }
      ],
      "name": "createContract",
      "outputs": [
        {
          "internalType": "uint256",
          "name": "",
          "type": "uint256"
        }
      ],
      "stateMutability": "nonpayable",
      "type": "function"
    },
    {
      "inputs": [
        {
          "internalType": "uint256",
          "name": "_contractId",
          "type": "uint256"
        }
      ],
      "name": "depositFunds",
      "outputs": [],
      "stateMutability": "payable",
      "type": "function"
    },
    {
      "inputs": [
        {
          "internalType": "uint256",
          "name": "_contractId",
          "type": "uint256"
        }
      ],
      "name": "signContract",
      "outputs": [],
      "stateMutability": "nonpayable",
      "type": "function"
    },
    {
      "inputs": [
        {
          "internalType": "uint256",
          "name": "_contractId",
          "type": "uint256"
        },
        {
          "internalType": "string",
          "name": "_workHash",
          "type": "string"
        }
      ],
      "name": "submitWork",
      "outputs": [],
      "stateMutability": "nonpayable",
      "type": "function"
    },
    {
      "inputs": [
        {
          "internalType": "uint256",
          "name": "_contractId",
          "type": "uint256"
        }
      ],
      "name": "approveWork",
      "outputs": [],
      "stateMutability": "nonpayable",
      "type": "function"
    },
    {
      "inputs": [
        {
          "internalType": "uint256",
          "name": "_contractId",
          "type": "uint256"
        }
      ],
      "name": "raiseDispute",
      "outputs": [],
      "stateMutability": "payable",
      "type": "function"
    },
    {
      "inputs": [
        {
          "internalType": "uint256",
          "name": "_contractId",
          "type": "uint256"
        },
        {
          "internalType": "uint256",
          "name": "clientShare",
          "type": "uint256"
        },
        {
          "internalType": "uint256",
          "name": "freelancerShare",
          "type": "uint256"
        }
      ],
      "name": "resolveDispute",
      "outputs": [],
      "stateMutability": "nonpayable",
      "type": "function"
    },
    {
      "inputs": [
        {
          "internalType": "uint256",
          "name": "_contractId",
          "type": "uint256"
        }
      ],
      "name": "requestRefund",
      "outputs": [],
      "stateMutability": "nonpayable",
      "type": "function"
    },
    {
      "inputs": [
        {
          "internalType": "uint256",
          "name": "_contractId",
          "type": "uint256"
        }
      ],
      "name": "getContract",
      "outputs": [
        {
          "internalType": "address",
          "name": "client",
          "type": "address"
        },
        {
          "internalType": "address",
          "name": "freelancer",
          "type": "address"
        },
        {
          "internalType": "uint256",
          "name": "bidAmount",
          "type": "uint256"
        },
        {
          "internalType": "uint256",
          "name": "deadline",
          "type": "uint256"
        },
        {
          "internalType": "string",
          "name": "jobTitle",
          "type": "string"
        },
        {
          "internalType": "string",
          "name": "jobDescription",
          "type": "string"
        },
        {
          "internalType": "enum JobContract.Status",
          "name": "status",
          "type": "uint8"
        },
        {
          "internalType": "string",
          "name": "workSubmissionHash",
          "type": "string"
        },
        {
          "internalType": "uint256",
          "name": "fundsDeposited",
          "type": "uint256"
        }
      ],
      "stateMutability": "view",
      "type": "function"
    },
    {
      "inputs": [],
      "name": "withdrawStuckFunds",
      "outputs": [],
      "stateMutability": "nonpayable",
      "type": "function"
    }
  ],
  "bytecode": "0x6080604052662386f26fc1000060025534801561001b57600080fd5b50600180546001600160a01b031916331790556123758061003d6000396000f3fe6080604052600436106100e85760003560e01c80636ebc8c861161008a578063a5c1674e11610059578063a5c1674e146102a6578063b9ce896b146102b9578063c5b60a48146102cf578063da8accf9146102e457600080fd5b80636ebc8c86146101f95780638da5cb5b1461022e5780639537e8d114610266578063a4b2409e1461028657600080fd5b80633d01e0fa116100c65780633d01e0fa146101555780633fabe74f1461017557806343ebf45a14610195578063474da79a146101c257600080fd5b8063064da183146100ed57806317299c04146101205780633b76594d14610142575b600080fd5b3480156100f957600080fd5b5061010d610108366004611e4b565b610304565b6040519081526020015b60405180910390f35b34801561012c57600080fd5b5061014061013b366004611ee1565b610683565b005b610140610150366004611ee1565b6106b2565b34801561016157600080fd5b50610140610170366004611ee1565b610836565b34801561018157600080fd5b50610140610190366004611efa565b610b85565b3480156101a157600080fd5b5061010d6101b0366004611ee1565b60036020526000908152604090205481565b3480156101ce57600080fd5b506101e26101dd366004611ee1565b610e43565b6040516101179b9a99989796959493929190611fa4565b34801561020557600080fd5b50610219610214366004611ee1565b61105c565b60405161011799989796959493929190612040565b34801561023a57600080fd5b5060015461024e906001600160a01b031681565b6040516001600160a01b039091168152602001610117565b34801561027257600080fd5b50610140610281366004611ee1565b61133f565b34801561029257600080fd5b506101406102a1366004611ee1565b611515565b6101406102b4366004611ee1565b611822565b3480156102c557600080fd5b5061010d60025481565b3480156102db57600080fd5b50610140611ad3565b3480156102f057600080fd5b506101406102ff3660046120c8565b611b97565b60006001600160a01b0386166103615760405162461bcd60e51b815260206004820152601a60248201527f496e76616c696420667265656c616e636572206164647265737300000000000060448201526064015b60405180910390fd5b600085116103b15760405162461bcd60e51b815260206004820152601b60248201527f42696420616d6f756e74206d75737420626520706f73697469766500000000006044820152606401610358565b4284116104005760405162461bcd60e51b815260206004820152601e60248201527f446561646c696e65206d75737420626520696e207468652066757475726500006044820152606401610358565b6000604051806101600160405280336001600160a01b03168152602001886001600160a01b031681526020018781526020018681526020018581526020018481526020016000600581111561045757610457611f6c565b81526000602080830182905260408084018390528051808301825283815260608086019190915260809485018490528354600181018555938052855160099094027f290decd9548b62a8d60345a988386fc84ba6bc95484008f6362f93160ef3e563810180546001600160a01b039687166001600160a01b0319918216178255948801517f290decd9548b62a8d60345a988386fc84ba6bc95484008f6362f93160ef3e5648301805491909716951694909417909455908501517f290decd9548b62a8d60345a988386fc84ba6bc95484008f6362f93160ef3e5658401558401517f290decd9548b62a8d60345a988386fc84ba6bc95484008f6362f93160ef3e5668301559183015192935083927f290decd9548b62a8d60345a988386fc84ba6bc95484008f6362f93160ef3e567909101906105949082612198565b5060a082015160058201906105a99082612198565b5060c082015160068201805460ff191660018360058111156105cd576105cd611f6c565b021790555060e0820151600682018054610100808601511515620100000262ff0000199415159091029390931662ffff001990911617919091179055610120820151600782019061061e9082612198565b5061014091909101516008909101556000805461063d9060019061226e565b90507f9e3c7e008a15a3c864482ee94fd7315bcc9d0c04f3a9041ab922f816acffbe068160405161067091815260200190565b60405180910390a1979650505050505050565b6001546001600160a01b031633146106ad5760405162461bcd60e51b815260040161035890612287565b600255565b60008082815481106106c6576106c66122be565b6000918252602090912060099091020180549091506001600160a01b031633146107325760405162461bcd60e51b815260206004820152601d60248201527f4f6e6c7920636c69656e742063616e206465706f7369742066756e64730000006044820152606401610358565b806002015434146107855760405162461bcd60e51b815260206004820152601d60248201527f4d757374206465706f7369742065786163742062696420616d6f756e740000006044820152606401610358565b6008810154156107d75760405162461bcd60e51b815260206004820152601760248201527f46756e647320616c7265616479206465706f73697465640000000000000000006044820152606401610358565b346008820181905560008381526003602052604090819020829055517f26679fa1f3868c950e9362f1106cf73f3318de0280e0411a3c68e4b463eadd4f9161082a91859190918252602082015260400190565b60405180910390a15050565b806000818154811061084a5761084a6122be565b60009182526020909120600990910201546001600160a01b031633148061089f57506000818154811061087f5761087f6122be565b60009182526020909120600990910201600101546001600160a01b031633145b6108bb5760405162461bcd60e51b8152600401610358906122d4565b60008083815481106108cf576108cf6122be565b6000918252602090912060099091020180549091506001600160a01b0316331461093b5760405162461bcd60e51b815260206004820152601c60248201527f4f6e6c7920636c69656e742063616e20617070726f766520776f726b000000006044820152606401610358565b6003600682015460ff16600581111561095657610956611f6c565b146109985760405162461bcd60e51b815260206004820152601260248201527115dbdc9ac81b9bdd081cdd589b5a5d1d195960721b6044820152606401610358565b600281015460008481526003602052604090205410156109fa5760405162461bcd60e51b815260206004820152601960248201527f496e73756666696369656e7420657363726f772066756e6473000000000000006044820152606401610358565b600083815260036020526040808220805490839055600184015491519092916001600160a01b03169083908381818185875af1925050503d8060008114610a5d576040519150601f19603f3d011682016040523d82523d6000602084013e610a62565b606091505b5050905080610ab35760405162461bcd60e51b815260206004820152601760248201527f5061796d656e74207472616e73666572206661696c65640000000000000000006044820152606401610358565b60068301805460ff19166004179055600183015460408051878152602081018590526001600160a01b03909216908201527fb398ec266cae176bd0a8d43b35200da0bb13c5620ad5e1663abdc3967a4ee50f9060600160405180910390a1604080518681523360208201527f8995e1d0bb339962f8aaef0145457b5833c9c7fe952f6124ebe6708c0ad690de91015b60405180910390a16040518581527f6aafa2babf7b7b7142ff5c7ff71f2b5f78e2243167a26d6b8a7f70936e76923e906020015b60405180910390a15050505050565b6001546001600160a01b03163314610baf5760405162461bcd60e51b815260040161035890612287565b6000808481548110610bc357610bc36122be565b6000918252602090912060099091020190506005600682015460ff166005811115610bf057610bf0611f6c565b14610c3d5760405162461bcd60e51b815260206004820152601760248201527f436f6e7472616374206e6f7420696e20646973707574650000000000000000006044820152606401610358565b600084815260036020526040902054610c56838561230b565b14610ca35760405162461bcd60e51b815260206004820181905260248201527f536861726573206d75737420657175616c20657363726f772062616c616e63656044820152606401610358565b600084815260036020526040812080549190558315610d575781546040516000916001600160a01b03169086908381818185875af1925050503d8060008114610d08576040519150601f19603f3d011682016040523d82523d6000602084013e610d0d565b606091505b5050905080610d555760405162461bcd60e51b815260206004820152601460248201527310db1a595b9d081c99599d5b990819985a5b195960621b6044820152606401610358565b505b8215610e045760018201546040516000916001600160a01b03169085908381818185875af1925050503d8060008114610dac576040519150601f19603f3d011682016040523d82523d6000602084013e610db1565b606091505b5050905080610e025760405162461bcd60e51b815260206004820152601960248201527f467265656c616e636572207061796d656e74206661696c6564000000000000006044820152606401610358565b505b60068201805460ff191660041790556040518581527f6aafa2babf7b7b7142ff5c7ff71f2b5f78e2243167a26d6b8a7f70936e76923e90602001610b76565b60008181548110610e5357600080fd5b6000918252602090912060099091020180546001820154600283015460038401546004850180546001600160a01b039586169750939094169491939092610e999061210f565b80601f0160208091040260200160405190810160405280929190818152602001828054610ec59061210f565b8015610f125780601f10610ee757610100808354040283529160200191610f12565b820191906000526020600020905b815481529060010190602001808311610ef557829003601f168201915b505050505090806005018054610f279061210f565b80601f0160208091040260200160405190810160405280929190818152602001828054610f539061210f565b8015610fa05780601f10610f7557610100808354040283529160200191610fa0565b820191906000526020600020905b815481529060010190602001808311610f8357829003601f168201915b5050506006840154600785018054949560ff808416966101008504821696506201000090940416935091610fd39061210f565b80601f0160208091040260200160405190810160405280929190818152602001828054610fff9061210f565b801561104c5780601f106110215761010080835404028352916020019161104c565b820191906000526020600020905b81548152906001019060200180831161102f57829003601f168201915b505050505090806008015490508b565b6000806000806060806000606060008060008b8154811061107f5761107f6122be565b60009182526020918290206040805161016081018252600990930290910180546001600160a01b03908116845260018201541693830193909352600283015490820152600382015460608201526004820180549192916080840191906110e49061210f565b80601f01602080910402602001604051908101604052809291908181526020018280546111109061210f565b801561115d5780601f106111325761010080835404028352916020019161115d565b820191906000526020600020905b81548152906001019060200180831161114057829003601f168201915b505050505081526020016005820180546111769061210f565b80601f01602080910402602001604051908101604052809291908181526020018280546111a29061210f565b80156111ef5780601f106111c4576101008083540402835291602001916111ef565b820191906000526020600020905b8154815290600101906020018083116111d257829003601f168201915b5050509183525050600682015460209091019060ff16600581111561121657611216611f6c565b600581111561122757611227611f6c565b8152600682015460ff61010082048116151560208401526201000090910416151560408201526007820180546060909201916112629061210f565b80601f016020809104026020016040519081016040528092919081815260200182805461128e9061210f565b80156112db5780601f106112b0576101008083540402835291602001916112db565b820191906000526020600020905b8154815290600101906020018083116112be57829003601f168201915b505050505081526020016008820154815250509050806000015181602001518260400151836060015184608001518560a001518660c00151876101200151886101400151995099509950995099509950995099509950509193959799909294969850565b8060008181548110611353576113536122be565b60009182526020909120600990910201546001600160a01b03163314806113a8575060008181548110611388576113886122be565b60009182526020909120600990910201600101546001600160a01b031633145b6113c45760405162461bcd60e51b8152600401610358906122d4565b60008083815481106113d8576113d86122be565b6000918252602090912060099091020180549091506001600160a01b031633036114665760008160080154116114505760405162461bcd60e51b815260206004820152601f60248201527f436c69656e74206d757374206465706f7369742066756e6473206669727374006044820152606401610358565b60068101805461ff00191661010017905561147a565b60068101805462ff00001916620100001790555b6006810154610100900460ff16801561149d5750600681015462010000900460ff165b156114b65760068101805460ff191660021790556114d8565b6006810154610100900460ff16156114d85760068101805460ff191660011790555b604080518481523360208201527f80bc357386c693c2d6ad5938af6765eacd7d7790c17e39c014ab30def6394165910160405180910390a1505050565b8060008181548110611529576115296122be565b60009182526020909120600990910201546001600160a01b031633148061157e57506000818154811061155e5761155e6122be565b60009182526020909120600990910201600101546001600160a01b031633145b61159a5760405162461bcd60e51b8152600401610358906122d4565b60008083815481106115ae576115ae6122be565b6000918252602090912060099091020180549091506001600160a01b0316331461161a5760405162461bcd60e51b815260206004820152601e60248201527f4f6e6c7920636c69656e742063616e207265717565737420726566756e6400006044820152606401610358565b6004600682015460ff16600581111561163557611635611f6c565b036116825760405162461bcd60e51b815260206004820152601a60248201527f436f6e747261637420616c726561647920636f6d706c657465640000000000006044820152606401610358565b806003015442116116cb5760405162461bcd60e51b8152602060048201526013602482015272111958591b1a5b99481b9bdd081c185cdcd959606a1b6044820152606401610358565b60008381526003602052604090205461171b5760405162461bcd60e51b8152602060048201526012602482015271139bc8199d5b991cc81d1bc81c99599d5b9960721b6044820152606401610358565b600083815260036020526040808220805490839055835491519092916001600160a01b03169083908381818185875af1925050503d806000811461177b576040519150601f19603f3d011682016040523d82523d6000602084013e611780565b606091505b50509050806117ca5760405162461bcd60e51b81526020600482015260166024820152751499599d5b99081d1c985b9cd9995c8819985a5b195960521b6044820152606401610358565b60068301805460ff19166004179055825460408051878152602081018590526001600160a01b03909216908201527f4db193d7c1bdc730f02a0a161fa6e661f6415394ac7ec66253d2e8c7fad18b3090606001610b42565b8060008181548110611836576118366122be565b60009182526020909120600990910201546001600160a01b031633148061188b57506000818154811061186b5761186b6122be565b60009182526020909120600990910201600101546001600160a01b031633145b6118a75760405162461bcd60e51b8152600401610358906122d4565b60025434146118f05760405162461bcd60e51b8152602060048201526015602482015274496e636f727265637420646973707574652066656560581b6044820152606401610358565b6000808381548110611904576119046122be565b6000918252602090912060099091020190506004600682015460ff16600581111561193157611931611f6c565b0361197e5760405162461bcd60e51b815260206004820152601a60248201527f436f6e747261637420616c726561647920636f6d706c657465640000000000006044820152606401610358565b60038101546119909062093a8061230b565b4211156119d85760405162461bcd60e51b8152602060048201526016602482015275111a5cdc1d5d19481c195c9a5bd908195e1c1a5c995960521b6044820152606401610358565b60068101805460ff191660051790556001546040516000916001600160a01b03169034908381818185875af1925050503d8060008114611a34576040519150601f19603f3d011682016040523d82523d6000602084013e611a39565b606091505b5050905080611a8a5760405162461bcd60e51b815260206004820152601b60248201527f4469737075746520666565207472616e73666572206661696c656400000000006044820152606401610358565b6040805185815233602082015234918101919091527fe0e58e9cc5ed7ef092d3e14cff6136d23ebf75a16cf3c8257ef8804811d8b0f3906060015b60405180910390a150505050565b6001546001600160a01b03163314611afd5760405162461bcd60e51b815260040161035890612287565b6001546040516000916001600160a01b03169047908381818185875af1925050503d8060008114611b4a576040519150601f19603f3d011682016040523d82523d6000602084013e611b4f565b606091505b5050905080611b945760405162461bcd60e51b815260206004820152601160248201527015da5d1a191c985dd85b0819985a5b1959607a1b6044820152606401610358565b50565b8160008181548110611bab57611bab6122be565b60009182526020909120600990910201546001600160a01b0316331480611c00575060008181548110611be057611be06122be565b60009182526020909120600990910201600101546001600160a01b031633145b611c1c5760405162461bcd60e51b8152600401610358906122d4565b6000808481548110611c3057611c306122be565b6000918252602090912060099091020160018101549091506001600160a01b03163314611c9f5760405162461bcd60e51b815260206004820152601f60248201527f4f6e6c7920667265656c616e6365722063616e207375626d697420776f726b006044820152606401610358565b6002600682015460ff166005811115611cba57611cba611f6c565b14611d075760405162461bcd60e51b815260206004820152601960248201527f436f6e7472616374206e6f742066756c6c79207369676e6564000000000000006044820152606401610358565b6000835111611d585760405162461bcd60e51b815260206004820152601960248201527f576f726b20686173682063616e6e6f7420626520656d707479000000000000006044820152606401610358565b60078101611d668482612198565b5060068101805460ff191660031790556040517f3822c71b106c7c1dabf7f076e68c9bd98c45d0cd0d073f4dcdaf422a0fe5584790611ac5908690869061231e565b634e487b7160e01b600052604160045260246000fd5b600082601f830112611dcf57600080fd5b813567ffffffffffffffff80821115611dea57611dea611da8565b604051601f8301601f19908116603f01168101908282118183101715611e1257611e12611da8565b81604052838152866020858801011115611e2b57600080fd5b836020870160208301376000602085830101528094505050505092915050565b600080600080600060a08688031215611e6357600080fd5b85356001600160a01b0381168114611e7a57600080fd5b94506020860135935060408601359250606086013567ffffffffffffffff80821115611ea557600080fd5b611eb189838a01611dbe565b93506080880135915080821115611ec757600080fd5b50611ed488828901611dbe565b9150509295509295909350565b600060208284031215611ef357600080fd5b5035919050565b600080600060608486031215611f0f57600080fd5b505081359360208301359350604090920135919050565b6000815180845260005b81811015611f4c57602081850181015186830182015201611f30565b506000602082860101526020601f19601f83011685010191505092915050565b634e487b7160e01b600052602160045260246000fd5b60068110611fa057634e487b7160e01b600052602160045260246000fd5b9052565b6001600160a01b038c811682528b166020820152604081018a90526060810189905261016060808201819052600090611fdf8382018b611f26565b905082810360a0840152611ff3818a611f26565b905061200260c0840189611f82565b86151560e08401528515156101008401528281036101208401526120268186611f26565b915050826101408301529c9b505050505050505050505050565b6001600160a01b038a811682528916602082015260408101889052606081018790526101206080820181905260009061207b83820189611f26565b905082810360a084015261208f8188611f26565b905061209e60c0840187611f82565b82810360e08401526120b08186611f26565b915050826101008301529a9950505050505050505050565b600080604083850312156120db57600080fd5b82359150602083013567ffffffffffffffff8111156120f957600080fd5b61210585828601611dbe565b9150509250929050565b600181811c9082168061212357607f821691505b60208210810361214357634e487b7160e01b600052602260045260246000fd5b50919050565b601f82111561219357600081815260208120601f850160051c810160208610156121705750805b601f850160051c820191505b8181101561218f5782815560010161217c565b5050505b505050565b815167ffffffffffffffff8111156121b2576121b2611da8565b6121c6816121c0845461210f565b84612149565b602080601f8311600181146121fb57600084156121e35750858301515b600019600386901b1c1916600185901b17855561218f565b600085815260208120601f198616915b8281101561222a5788860151825594840194600190910190840161220b565b50858210156122485787850151600019600388901b60f8161c191681555b5050505050600190811b01905550565b634e487b7160e01b600052601160045260246000fd5b8181038181111561228157612281612258565b92915050565b60208082526018908201527f4f6e6c79206f776e65722063616e2063616c6c20746869730000000000000000604082015260600190565b634e487b7160e01b600052603260045260246000fd5b6020808252601c908201527f4e6f74206120706172747920746f207468697320636f6e747261637400000000604082015260600190565b8082018082111561228157612281612258565b8281526040602082015260006123376040830184611f26565b94935050505056fea26469706673582212202862236e7ebf7746df9d4357e2466b31341f92324baf0ce4f174bb4d63e939fd64736f6c63430008130033",
  "immutableReferences": {},
  "source": "// SPDX-License-Identifier: UNLICENSED\r\npragma solidity ^0.8.19;\r\n\r\ncontract JobContract {\r\n    enum Status { Created, ClientSigned, FreelancerSigned, WorkSubmitted, Completed, Disputed }\r\n\r\n    struct Contract {\r\n        address client;\r\n        address freelancer;\r\n        uint256 bidAmount;\r\n        uint256 deadline;\r\n        string jobTitle;\r\n        string jobDescription;\r\n        Status status;\r\n        bool clientApproved;\r\n        bool freelancerApproved;\r\n        string workSubmissionHash;\r\n        uint256 fundsDeposited;\r\n    }\r\n\r\n    Contract[] public contracts;\r\n    address public owner;\r\n    uint256 public disputeFee = 0.01 ether; // Fee for raising a dispute\r\n\r\n    // Escrow balances tracking\r\n    mapping(uint256 => uint256) public escrowBalances;\r\n\r\n    event ContractCreated(uint256 contractId);\r\n    event Signed(uint256 contractId, address signer);\r\n    event FundsDeposited(uint256 contractId, uint256 amount);\r\n    event WorkSubmitted(uint256 contractId, string workHash);\r\n    event WorkApproved(uint256 contractId, address approver);\r\n    event PaymentReleased(uint256 contractId, uint256 amount, address recipient);\r\n    event RefundIssued(uint256 contractId, uint256 amount, address recipient);\r\n    event ContractCompleted(uint256 contractId);\r\n    event DisputeRaised(uint256 contractId, address raisedBy, uint256 fee);\r\n\r\n    modifier onlyParties(uint256 _contractId) {\r\n        require(\r\n            msg.sender == contracts[_contractId].client || \r\n            msg.sender == contracts[_contractId].freelancer,\r\n            \"Not a party to this contract\"\r\n        );\r\n        _;\r\n    }\r\n\r\n    modifier onlyOwner() {\r\n        require(msg.sender == owner, \"Only owner can call this\");\r\n        _;\r\n    }\r\n\r\n    constructor() {\r\n        owner = msg.sender;\r\n    }\r\n\r\n    // Allows owner to update dispute fee\r\n    function setDisputeFee(uint256 _newFee) external onlyOwner {\r\n        disputeFee = _newFee;\r\n    }\r\n\r\n    function createContract(\r\n        address _freelancer,\r\n        uint256 _bidAmount,\r\n        uint256 _deadline,\r\n        string memory _jobTitle,\r\n        string memory _jobDescription\r\n    ) external returns (uint256) {\r\n        require(_freelancer != address(0), \"Invalid freelancer address\");\r\n        require(_bidAmount > 0, \"Bid amount must be positive\");\r\n        require(_deadline > block.timestamp, \"Deadline must be in the future\");\r\n\r\n        Contract memory newContract = Contract({\r\n            client: msg.sender,\r\n            freelancer: _freelancer,\r\n            bidAmount: _bidAmount,\r\n            deadline: _deadline,\r\n            jobTitle: _jobTitle,\r\n            jobDescription: _jobDescription,\r\n            status: Status.Created,\r\n            clientApproved: false,\r\n            freelancerApproved: false,\r\n            workSubmissionHash: \"\",\r\n            fundsDeposited: 0\r\n        });\r\n\r\n        contracts.push(newContract);\r\n        uint256 contractId = contracts.length - 1;\r\n        emit ContractCreated(contractId);\r\n        return contractId;\r\n    }\r\n\r\n    // Client deposits funds into escrow\r\n    function depositFunds(uint256 _contractId) external payable {\r\n        Contract storage contractItem = contracts[_contractId];\r\n        require(msg.sender == contractItem.client, \"Only client can deposit funds\");\r\n        require(msg.value == contractItem.bidAmount, \"Must deposit exact bid amount\");\r\n        require(contractItem.fundsDeposited == 0, \"Funds already deposited\");\r\n        \r\n        contractItem.fundsDeposited = msg.value;\r\n        escrowBalances[_contractId] = msg.value;\r\n        emit FundsDeposited(_contractId, msg.value);\r\n    }\r\n\r\n    function signContract(uint256 _contractId) external onlyParties(_contractId) {\r\n        Contract storage contractItem = contracts[_contractId];\r\n        \r\n        if (msg.sender == contractItem.client) {\r\n            require(contractItem.fundsDeposited > 0, \"Client must deposit funds first\");\r\n            contractItem.clientApproved = true;\r\n        } else {\r\n            contractItem.freelancerApproved = true;\r\n        }\r\n\r\n        if (contractItem.clientApproved && contractItem.freelancerApproved) {\r\n            contractItem.status = Status.FreelancerSigned;\r\n        } else if (contractItem.clientApproved) {\r\n            contractItem.status = Status.ClientSigned;\r\n        }\r\n\r\n        emit Signed(_contractId, msg.sender);\r\n    }\r\n\r\n    function submitWork(uint256 _contractId, string memory _workHash) external onlyParties(_contractId) {\r\n        Contract storage contractItem = contracts[_contractId];\r\n        require(msg.sender == contractItem.freelancer, \"Only freelancer can submit work\");\r\n        require(contractItem.status == Status.FreelancerSigned, \"Contract not fully signed\");\r\n        require(bytes(_workHash).length > 0, \"Work hash cannot be empty\");\r\n\r\n        contractItem.workSubmissionHash = _workHash;\r\n        contractItem.status = Status.WorkSubmitted;\r\n        emit WorkSubmitted(_contractId, _workHash);\r\n    }\r\n\r\n    function approveWork(uint256 _contractId) external onlyParties(_contractId) {\r\n        Contract storage contractItem = contracts[_contractId];\r\n        require(msg.sender == contractItem.client, \"Only client can approve work\");\r\n        require(contractItem.status == Status.WorkSubmitted, \"Work not submitted\");\r\n        require(escrowBalances[_contractId] >= contractItem.bidAmount, \"Insufficient escrow funds\");\r\n\r\n        uint256 amount = escrowBalances[_contractId];\r\n        escrowBalances[_contractId] = 0;\r\n        \r\n        // Transfer funds to freelancer\r\n        (bool success, ) = payable(contractItem.freelancer).call{value: amount}(\"\");\r\n        require(success, \"Payment transfer failed\");\r\n\r\n        contractItem.status = Status.Completed;\r\n        emit PaymentReleased(_contractId, amount, contractItem.freelancer);\r\n        emit WorkApproved(_contractId, msg.sender);\r\n        emit ContractCompleted(_contractId);\r\n    }\r\n\r\n    function raiseDispute(uint256 _contractId) external payable onlyParties(_contractId) {\r\n        require(msg.value == disputeFee, \"Incorrect dispute fee\");\r\n        \r\n        Contract storage contractItem = contracts[_contractId];\r\n        require(contractItem.status != Status.Completed, \"Contract already completed\");\r\n        require(block.timestamp <= contractItem.deadline + 7 days, \"Dispute period expired\");\r\n\r\n        contractItem.status = Status.Disputed;\r\n        \r\n        // Transfer dispute fee to owner\r\n        (bool success, ) = payable(owner).call{value: msg.value}(\"\");\r\n        require(success, \"Dispute fee transfer failed\");\r\n\r\n        emit DisputeRaised(_contractId, msg.sender, msg.value);\r\n    }\r\n\r\n    // Owner can resolve dispute by splitting funds\r\n    function resolveDispute(\r\n        uint256 _contractId,\r\n        uint256 clientShare,\r\n        uint256 freelancerShare\r\n    ) external onlyOwner {\r\n        Contract storage contractItem = contracts[_contractId];\r\n        require(contractItem.status == Status.Disputed, \"Contract not in dispute\");\r\n        require(\r\n            clientShare + freelancerShare == escrowBalances[_contractId],\r\n            \"Shares must equal escrow balance\"\r\n        );\r\n\r\n        uint256 escrowAmount = escrowBalances[_contractId];\r\n        escrowBalances[_contractId] = 0;\r\n\r\n        if (clientShare > 0) {\r\n            (bool successClient, ) = payable(contractItem.client).call{value: clientShare}(\"\");\r\n            require(successClient, \"Client refund failed\");\r\n        }\r\n\r\n        if (freelancerShare > 0) {\r\n            (bool successFreelancer, ) = payable(contractItem.freelancer).call{value: freelancerShare}(\"\");\r\n            require(successFreelancer, \"Freelancer payment failed\");\r\n        }\r\n\r\n        contractItem.status = Status.Completed;\r\n        emit ContractCompleted(_contractId);\r\n    }\r\n\r\n    // Client can get refund if deadline passes without submission\r\n    function requestRefund(uint256 _contractId) external onlyParties(_contractId) {\r\n        Contract storage contractItem = contracts[_contractId];\r\n        require(msg.sender == contractItem.client, \"Only client can request refund\");\r\n        require(contractItem.status != Status.Completed, \"Contract already completed\");\r\n        require(block.timestamp > contractItem.deadline, \"Deadline not passed\");\r\n        require(escrowBalances[_contractId] > 0, \"No funds to refund\");\r\n\r\n        uint256 amount = escrowBalances[_contractId];\r\n        escrowBalances[_contractId] = 0;\r\n        \r\n        (bool success, ) = payable(contractItem.client).call{value: amount}(\"\");\r\n        require(success, \"Refund transfer failed\");\r\n\r\n        contractItem.status = Status.Completed;\r\n        emit RefundIssued(_contractId, amount, contractItem.client);\r\n        emit ContractCompleted(_contractId);\r\n    }\r\n\r\n    function getContract(uint256 _contractId) external view returns (\r\n        address client,\r\n        address freelancer,\r\n        uint256 bidAmount,\r\n        uint256 deadline,\r\n        string memory jobTitle,\r\n        string memory jobDescription,\r\n        Status status,\r\n        string memory workSubmissionHash,\r\n        uint256 fundsDeposited\r\n    ) {\r\n        Contract memory contractItem = contracts[_contractId];\r\n        return (\r\n            contractItem.client,\r\n            contractItem.freelancer,\r\n            contractItem.bidAmount,\r\n            contractItem.deadline,\r\n            contractItem.jobTitle,\r\n            contractItem.jobDescription,\r\n            contractItem.status,\r\n            contractItem.workSubmissionHash,\r\n            contractItem.fundsDeposited\r\n        );\r\n    }\r\n\r\n    // Emergency withdrawal for owner (only if contract has stuck funds)\r\n    function withdrawStuckFunds() external onlyOwner {\r\n        (bool success, ) = payable(owner).call{value: address(this).balance}(\"\");\r\n        require(success, \"Withdrawal failed\");\r\n    }\r\n}",
  "sourcePath": "C:\\Users\\Kashaf A.Minhas\\Desktop\\Git\\Freelance-chain\\contracts\\contracts\\JobContract.sol",
  "compiler": {
    "name": "solc",
    "version": "0.8.19+commit.7dd6d404.Emscripten.clang"
  },
  "schemaVersion": "3.4.16",
  "updatedAt": "2025-05-21T13:31:57.379Z",
  "devdoc": {
    "kind": "dev",
    "methods": {},
    "version": 1
  },
  "userdoc": {
    "kind": "user",
    "methods": {},
    "version": 1
  }
}