{
  "contractName": "JobContract",
  "abi": [
    {
      "inputs": [],
      "stateMutability": "nonpayable",
      "type": "constructor"
    },
    {
      "anonymous": false,
      "inputs": [
        {
          "indexed": false,
          "internalType": "uint256",
          "name": "contractId",
          "type": "uint256"
        }
      ],
      "name": "ContractCompleted",
      "type": "event"
    },
    {
      "anonymous": false,
      "inputs": [
        {
          "indexed": false,
          "internalType": "uint256",
          "name": "contractId",
          "type": "uint256"
        }
      ],
      "name": "ContractCreated",
      "type": "event"
    },
    {
      "anonymous": false,
      "inputs": [
        {
          "indexed": false,
          "internalType": "uint256",
          "name": "contractId",
          "type": "uint256"
        },
        {
          "indexed": false,
          "internalType": "address",
          "name": "raisedBy",
          "type": "address"
        }
      ],
      "name": "DisputeRaised",
      "type": "event"
    },
    {
      "anonymous": false,
      "inputs": [
        {
          "indexed": false,
          "internalType": "uint256",
          "name": "contractId",
          "type": "uint256"
        },
        {
          "indexed": false,
          "internalType": "address",
          "name": "signer",
          "type": "address"
        }
      ],
      "name": "Signed",
      "type": "event"
    },
    {
      "anonymous": false,
      "inputs": [
        {
          "indexed": false,
          "internalType": "uint256",
          "name": "contractId",
          "type": "uint256"
        },
        {
          "indexed": false,
          "internalType": "address",
          "name": "approver",
          "type": "address"
        }
      ],
      "name": "WorkApproved",
      "type": "event"
    },
    {
      "anonymous": false,
      "inputs": [
        {
          "indexed": false,
          "internalType": "uint256",
          "name": "contractId",
          "type": "uint256"
        },
        {
          "indexed": false,
          "internalType": "string",
          "name": "workHash",
          "type": "string"
        }
      ],
      "name": "WorkSubmitted",
      "type": "event"
    },
    {
      "inputs": [
        {
          "internalType": "uint256",
          "name": "",
          "type": "uint256"
        }
      ],
      "name": "contracts",
      "outputs": [
        {
          "internalType": "address",
          "name": "client",
          "type": "address"
        },
        {
          "internalType": "address",
          "name": "freelancer",
          "type": "address"
        },
        {
          "internalType": "uint256",
          "name": "bidAmount",
          "type": "uint256"
        },
        {
          "internalType": "uint256",
          "name": "deadline",
          "type": "uint256"
        },
        {
          "internalType": "string",
          "name": "jobTitle",
          "type": "string"
        },
        {
          "internalType": "string",
          "name": "jobDescription",
          "type": "string"
        },
        {
          "internalType": "enum JobContract.Status",
          "name": "status",
          "type": "uint8"
        },
        {
          "internalType": "bool",
          "name": "clientApproved",
          "type": "bool"
        },
        {
          "internalType": "bool",
          "name": "freelancerApproved",
          "type": "bool"
        },
        {
          "internalType": "string",
          "name": "workSubmissionHash",
          "type": "string"
        }
      ],
      "stateMutability": "view",
      "type": "function",
      "constant": true
    },
    {
      "inputs": [],
      "name": "owner",
      "outputs": [
        {
          "internalType": "address",
          "name": "",
          "type": "address"
        }
      ],
      "stateMutability": "view",
      "type": "function",
      "constant": true
    },
    {
      "inputs": [
        {
          "internalType": "address",
          "name": "_freelancer",
          "type": "address"
        },
        {
          "internalType": "uint256",
          "name": "_bidAmount",
          "type": "uint256"
        },
        {
          "internalType": "uint256",
          "name": "_deadline",
          "type": "uint256"
        },
        {
          "internalType": "string",
          "name": "_jobTitle",
          "type": "string"
        },
        {
          "internalType": "string",
          "name": "_jobDescription",
          "type": "string"
        }
      ],
      "name": "createContract",
      "outputs": [
        {
          "internalType": "uint256",
          "name": "",
          "type": "uint256"
        }
      ],
      "stateMutability": "nonpayable",
      "type": "function"
    },
    {
      "inputs": [
        {
          "internalType": "uint256",
          "name": "_contractId",
          "type": "uint256"
        }
      ],
      "name": "signContract",
      "outputs": [],
      "stateMutability": "nonpayable",
      "type": "function"
    },
    {
      "inputs": [
        {
          "internalType": "uint256",
          "name": "_contractId",
          "type": "uint256"
        },
        {
          "internalType": "string",
          "name": "_workHash",
          "type": "string"
        }
      ],
      "name": "submitWork",
      "outputs": [],
      "stateMutability": "nonpayable",
      "type": "function"
    },
    {
      "inputs": [
        {
          "internalType": "uint256",
          "name": "_contractId",
          "type": "uint256"
        }
      ],
      "name": "approveWork",
      "outputs": [],
      "stateMutability": "nonpayable",
      "type": "function"
    },
    {
      "inputs": [
        {
          "internalType": "uint256",
          "name": "_contractId",
          "type": "uint256"
        }
      ],
      "name": "raiseDispute",
      "outputs": [],
      "stateMutability": "nonpayable",
      "type": "function"
    },
    {
      "inputs": [
        {
          "internalType": "uint256",
          "name": "_contractId",
          "type": "uint256"
        }
      ],
      "name": "getContract",
      "outputs": [
        {
          "internalType": "address",
          "name": "client",
          "type": "address"
        },
        {
          "internalType": "address",
          "name": "freelancer",
          "type": "address"
        },
        {
          "internalType": "uint256",
          "name": "bidAmount",
          "type": "uint256"
        },
        {
          "internalType": "uint256",
          "name": "deadline",
          "type": "uint256"
        },
        {
          "internalType": "string",
          "name": "jobTitle",
          "type": "string"
        },
        {
          "internalType": "string",
          "name": "jobDescription",
          "type": "string"
        },
        {
          "internalType": "enum JobContract.Status",
          "name": "status",
          "type": "uint8"
        },
        {
          "internalType": "string",
          "name": "workSubmissionHash",
          "type": "string"
        }
      ],
      "stateMutability": "view",
      "type": "function",
      "constant": true
    }
  ],
  "bytecode": "0x608060405234801561001057600080fd5b50600180546001600160a01b03191633179055611493806100326000396000f3fe608060405234801561001057600080fd5b50600436106100885760003560e01c80638da5cb5b1161005b5780638da5cb5b146101185780639537e8d114610143578063a5c1674e14610156578063da8accf91461016957600080fd5b8063064da1831461008d5780633d01e0fa146100b3578063474da79a146100c85780636ebc8c86146100f1575b600080fd5b6100a061009b366004610ff9565b61017c565b6040519081526020015b60405180910390f35b6100c66100c136600461108f565b6103ec565b005b6100db6100d636600461108f565b6105d7565b6040516100aa9a99989796959493929190611126565b6101046100ff36600461108f565b6107ea565b6040516100aa9897969594939291906111b9565b60015461012b906001600160a01b031681565b6040516001600160a01b0390911681526020016100aa565b6100c661015136600461108f565b610ab7565b6100c661016436600461108f565b610c31565b6100c6610177366004611238565b610d88565b600080604051806101400160405280336001600160a01b03168152602001886001600160a01b03168152602001878152602001868152602001858152602001848152602001600060058111156101d4576101d46110ee565b8152600060208083018290526040808401839052805180830182528381526060948501528254600181018455928052845160089093027f290decd9548b62a8d60345a988386fc84ba6bc95484008f6362f93160ef3e563810180546001600160a01b039586166001600160a01b0319918216178255938701517f290decd9548b62a8d60345a988386fc84ba6bc95484008f6362f93160ef3e56483018054919096169416939093179093558401517f290decd9548b62a8d60345a988386fc84ba6bc95484008f6362f93160ef3e565830155918301517f290decd9548b62a8d60345a988386fc84ba6bc95484008f6362f93160ef3e566820155608083015192935083927f290decd9548b62a8d60345a988386fc84ba6bc95484008f6362f93160ef3e567909101906103079082611308565b5060a0820151600582019061031c9082611308565b5060c082015160068201805460ff19166001836005811115610340576103406110ee565b021790555060e0820151600682018054610100808601511515620100000262ff0000199415159091029390931662ffff00199091161791909117905561012082015160078201906103919082611308565b5050600080549091506103a6906001906113c8565b90507f9e3c7e008a15a3c864482ee94fd7315bcc9d0c04f3a9041ab922f816acffbe06816040516103d991815260200190565b60405180910390a1979650505050505050565b8060008181548110610400576104006113ef565b60009182526020909120600890910201546001600160a01b0316331480610455575060008181548110610435576104356113ef565b60009182526020909120600890910201600101546001600160a01b031633145b61047a5760405162461bcd60e51b815260040161047190611405565b60405180910390fd5b600080838154811061048e5761048e6113ef565b6000918252602090912060089091020180549091506001600160a01b031633146104fa5760405162461bcd60e51b815260206004820152601c60248201527f4f6e6c7920636c69656e742063616e20617070726f766520776f726b000000006044820152606401610471565b6003600682015460ff166005811115610515576105156110ee565b146105575760405162461bcd60e51b815260206004820152601260248201527115dbdc9ac81b9bdd081cdd589b5a5d1d195960721b6044820152606401610471565b60068101805460ff19166004179055604080518481523360208201527f8995e1d0bb339962f8aaef0145457b5833c9c7fe952f6124ebe6708c0ad690de910160405180910390a16040518381527f6aafa2babf7b7b7142ff5c7ff71f2b5f78e2243167a26d6b8a7f70936e76923e906020015b60405180910390a1505050565b600081815481106105e757600080fd5b6000918252602090912060089091020180546001820154600283015460038401546004850180546001600160a01b03958616975093909416949193909261062d9061127f565b80601f01602080910402602001604051908101604052809291908181526020018280546106599061127f565b80156106a65780601f1061067b576101008083540402835291602001916106a6565b820191906000526020600020905b81548152906001019060200180831161068957829003601f168201915b5050505050908060050180546106bb9061127f565b80601f01602080910402602001604051908101604052809291908181526020018280546106e79061127f565b80156107345780601f1061070957610100808354040283529160200191610734565b820191906000526020600020905b81548152906001019060200180831161071757829003601f168201915b5050506006840154600785018054949560ff8084169661010085048216965062010000909404169350916107679061127f565b80601f01602080910402602001604051908101604052809291908181526020018280546107939061127f565b80156107e05780601f106107b5576101008083540402835291602001916107e0565b820191906000526020600020905b8154815290600101906020018083116107c357829003601f168201915b505050505090508a565b600080600080606080600060606000808a8154811061080b5761080b6113ef565b60009182526020918290206040805161014081018252600890930290910180546001600160a01b03908116845260018201541693830193909352600283015490820152600382015460608201526004820180549192916080840191906108709061127f565b80601f016020809104026020016040519081016040528092919081815260200182805461089c9061127f565b80156108e95780601f106108be576101008083540402835291602001916108e9565b820191906000526020600020905b8154815290600101906020018083116108cc57829003601f168201915b505050505081526020016005820180546109029061127f565b80601f016020809104026020016040519081016040528092919081815260200182805461092e9061127f565b801561097b5780601f106109505761010080835404028352916020019161097b565b820191906000526020600020905b81548152906001019060200180831161095e57829003601f168201915b5050509183525050600682015460209091019060ff1660058111156109a2576109a26110ee565b60058111156109b3576109b36110ee565b8152600682015460ff61010082048116151560208401526201000090910416151560408201526007820180546060909201916109ee9061127f565b80601f0160208091040260200160405190810160405280929190818152602001828054610a1a9061127f565b8015610a675780601f10610a3c57610100808354040283529160200191610a67565b820191906000526020600020905b815481529060010190602001808311610a4a57829003601f168201915b5050505050815250509050806000015181602001518260400151836060015184608001518560a001518660c001518761012001519850985098509850985098509850985050919395975091939597565b8060008181548110610acb57610acb6113ef565b60009182526020909120600890910201546001600160a01b0316331480610b20575060008181548110610b0057610b006113ef565b60009182526020909120600890910201600101546001600160a01b031633145b610b3c5760405162461bcd60e51b815260040161047190611405565b6000808381548110610b5057610b506113ef565b6000918252602090912060089091020180549091506001600160a01b03163303610b8a5760068101805461ff001916610100179055610b9e565b60068101805462ff00001916620100001790555b6006810154610100900460ff168015610bc15750600681015462010000900460ff165b15610bda5760068101805460ff19166002179055610bfc565b6006810154610100900460ff1615610bfc5760068101805460ff191660011790555b604080518481523360208201527f80bc357386c693c2d6ad5938af6765eacd7d7790c17e39c014ab30def639416591016105ca565b8060008181548110610c4557610c456113ef565b60009182526020909120600890910201546001600160a01b0316331480610c9a575060008181548110610c7a57610c7a6113ef565b60009182526020909120600890910201600101546001600160a01b031633145b610cb65760405162461bcd60e51b815260040161047190611405565b6000808381548110610cca57610cca6113ef565b6000918252602090912060089091020190506004600682015460ff166005811115610cf757610cf76110ee565b03610d445760405162461bcd60e51b815260206004820152601a60248201527f436f6e747261637420616c726561647920636f6d706c657465640000000000006044820152606401610471565b60068101805460ff19166005179055604080518481523360208201527f84a477df8a28a4276ca6dee4458a06c3015f30c477d9c949ede4e13ff8a552b491016105ca565b8160008181548110610d9c57610d9c6113ef565b60009182526020909120600890910201546001600160a01b0316331480610df1575060008181548110610dd157610dd16113ef565b60009182526020909120600890910201600101546001600160a01b031633145b610e0d5760405162461bcd60e51b815260040161047190611405565b6000808481548110610e2157610e216113ef565b6000918252602090912060089091020160018101549091506001600160a01b03163314610e905760405162461bcd60e51b815260206004820152601f60248201527f4f6e6c7920667265656c616e6365722063616e207375626d697420776f726b006044820152606401610471565b6002600682015460ff166005811115610eab57610eab6110ee565b14610ef85760405162461bcd60e51b815260206004820152601960248201527f436f6e7472616374206e6f742066756c6c79207369676e6564000000000000006044820152606401610471565b60078101610f068482611308565b5060068101805460ff191660031790556040517f3822c71b106c7c1dabf7f076e68c9bd98c45d0cd0d073f4dcdaf422a0fe5584790610f48908690869061143c565b60405180910390a150505050565b634e487b7160e01b600052604160045260246000fd5b600082601f830112610f7d57600080fd5b813567ffffffffffffffff80821115610f9857610f98610f56565b604051601f8301601f19908116603f01168101908282118183101715610fc057610fc0610f56565b81604052838152866020858801011115610fd957600080fd5b836020870160208301376000602085830101528094505050505092915050565b600080600080600060a0868803121561101157600080fd5b85356001600160a01b038116811461102857600080fd5b94506020860135935060408601359250606086013567ffffffffffffffff8082111561105357600080fd5b61105f89838a01610f6c565b9350608088013591508082111561107557600080fd5b5061108288828901610f6c565b9150509295509295909350565b6000602082840312156110a157600080fd5b5035919050565b6000815180845260005b818110156110ce576020818501810151868301820152016110b2565b506000602082860101526020601f19601f83011685010191505092915050565b634e487b7160e01b600052602160045260246000fd5b6006811061112257634e487b7160e01b600052602160045260246000fd5b9052565b6001600160a01b038b811682528a1660208201526040810189905260608101889052610140608082018190526000906111618382018a6110a8565b905082810360a084015261117581896110a8565b905061118460c0840188611104565b85151560e08401528415156101008401528281036101208401526111a881856110a8565b9d9c50505050505050505050505050565b6001600160a01b038981168252881660208201526040810187905260608101869052610100608082018190526000906111f4838201886110a8565b905082810360a084015261120881876110a8565b905061121760c0840186611104565b82810360e084015261122981856110a8565b9b9a5050505050505050505050565b6000806040838503121561124b57600080fd5b82359150602083013567ffffffffffffffff81111561126957600080fd5b61127585828601610f6c565b9150509250929050565b600181811c9082168061129357607f821691505b6020821081036112b357634e487b7160e01b600052602260045260246000fd5b50919050565b601f82111561130357600081815260208120601f850160051c810160208610156112e05750805b601f850160051c820191505b818110156112ff578281556001016112ec565b5050505b505050565b815167ffffffffffffffff81111561132257611322610f56565b61133681611330845461127f565b846112b9565b602080601f83116001811461136b57600084156113535750858301515b600019600386901b1c1916600185901b1785556112ff565b600085815260208120601f198616915b8281101561139a5788860151825594840194600190910190840161137b565b50858210156113b85787850151600019600388901b60f8161c191681555b5050505050600190811b01905550565b818103818111156113e957634e487b7160e01b600052601160045260246000fd5b92915050565b634e487b7160e01b600052603260045260246000fd5b6020808252601c908201527f4e6f74206120706172747920746f207468697320636f6e747261637400000000604082015260600190565b82815260406020820152600061145560408301846110a8565b94935050505056fea2646970667358221220833991aa88243f015199743c70a83d37389c00413d6d49e53078163d3c47a22464736f6c63430008130033",
  "immutableReferences": {},
  "source": "// SPDX-License-Identifier: UNLICENSED\r\npragma solidity ^0.8.19;\r\n\r\n\r\ncontract JobContract {\r\n    enum Status { Created, ClientSigned, FreelancerSigned, WorkSubmitted, Completed, Disputed }\r\n\r\n    struct Contract {\r\n        address client;\r\n        address freelancer;\r\n        uint256 bidAmount;\r\n        uint256 deadline;\r\n        string jobTitle;\r\n        string jobDescription;\r\n        Status status;\r\n        bool clientApproved;\r\n        bool freelancerApproved;\r\n        string workSubmissionHash;\r\n    }\r\n\r\n    Contract[] public contracts;\r\n    address public owner;\r\n\r\n    event ContractCreated(uint256 contractId);\r\n    event Signed(uint256 contractId, address signer);\r\n    event WorkSubmitted(uint256 contractId, string workHash);\r\n    event WorkApproved(uint256 contractId, address approver);\r\n    event ContractCompleted(uint256 contractId);\r\n    event DisputeRaised(uint256 contractId, address raisedBy);\r\n\r\n    modifier onlyParties(uint256 _contractId) {\r\n        require(\r\n            msg.sender == contracts[_contractId].client || \r\n            msg.sender == contracts[_contractId].freelancer,\r\n            \"Not a party to this contract\"\r\n        );\r\n        _;\r\n    }\r\n\r\n    modifier onlyOwner() {\r\n        require(msg.sender == owner, \"Only owner can call this\");\r\n        _;\r\n    }\r\n\r\n    constructor() {\r\n        owner = msg.sender;\r\n    }\r\n\r\n    function createContract(\r\n        address _freelancer,\r\n        uint256 _bidAmount,\r\n        uint256 _deadline,\r\n        string memory _jobTitle,\r\n        string memory _jobDescription\r\n    ) external returns (uint256) {\r\n        Contract memory newContract = Contract({\r\n            client: msg.sender,\r\n            freelancer: _freelancer,\r\n            bidAmount: _bidAmount,\r\n            deadline: _deadline,\r\n            jobTitle: _jobTitle,\r\n            jobDescription: _jobDescription,\r\n            status: Status.Created,\r\n            clientApproved: false,\r\n            freelancerApproved: false,\r\n            workSubmissionHash: \"\"\r\n        });\r\n\r\n        contracts.push(newContract);\r\n        uint256 contractId = contracts.length - 1;\r\n        emit ContractCreated(contractId);\r\n        return contractId;\r\n    }\r\n\r\n    function signContract(uint256 _contractId) external onlyParties(_contractId) {\r\n        Contract storage contractItem = contracts[_contractId];\r\n        \r\n        if (msg.sender == contractItem.client) {\r\n            contractItem.clientApproved = true;\r\n        } else {\r\n            contractItem.freelancerApproved = true;\r\n        }\r\n\r\n        if (contractItem.clientApproved && contractItem.freelancerApproved) {\r\n            contractItem.status = Status.FreelancerSigned;\r\n        } else if (contractItem.clientApproved) {\r\n            contractItem.status = Status.ClientSigned;\r\n        }\r\n\r\n        emit Signed(_contractId, msg.sender);\r\n    }\r\n\r\n    function submitWork(uint256 _contractId, string memory _workHash) external onlyParties(_contractId) {\r\n        Contract storage contractItem = contracts[_contractId];\r\n        require(msg.sender == contractItem.freelancer, \"Only freelancer can submit work\");\r\n        require(contractItem.status == Status.FreelancerSigned, \"Contract not fully signed\");\r\n\r\n        contractItem.workSubmissionHash = _workHash;\r\n        contractItem.status = Status.WorkSubmitted;\r\n        emit WorkSubmitted(_contractId, _workHash);\r\n    }\r\n\r\n    function approveWork(uint256 _contractId) external onlyParties(_contractId) {\r\n        Contract storage contractItem = contracts[_contractId];\r\n        require(msg.sender == contractItem.client, \"Only client can approve work\");\r\n        require(contractItem.status == Status.WorkSubmitted, \"Work not submitted\");\r\n\r\n        contractItem.status = Status.Completed;\r\n        emit WorkApproved(_contractId, msg.sender);\r\n        emit ContractCompleted(_contractId);\r\n    }\r\n\r\n    function raiseDispute(uint256 _contractId) external onlyParties(_contractId) {\r\n        Contract storage contractItem = contracts[_contractId];\r\n        require(contractItem.status != Status.Completed, \"Contract already completed\");\r\n\r\n        contractItem.status = Status.Disputed;\r\n        emit DisputeRaised(_contractId, msg.sender);\r\n    }\r\n\r\n    function getContract(uint256 _contractId) external view returns (\r\n        address client,\r\n        address freelancer,\r\n        uint256 bidAmount,\r\n        uint256 deadline,\r\n        string memory jobTitle,\r\n        string memory jobDescription,\r\n        Status status,\r\n        string memory workSubmissionHash\r\n    ) {\r\n        Contract memory contractItem = contracts[_contractId];\r\n        return (\r\n            contractItem.client,\r\n            contractItem.freelancer,\r\n            contractItem.bidAmount,\r\n            contractItem.deadline,\r\n            contractItem.jobTitle,\r\n            contractItem.jobDescription,\r\n            contractItem.status,\r\n            contractItem.workSubmissionHash\r\n        );\r\n    }\r\n}",
  "sourcePath": "C:\\Users\\Kashaf A.Minhas\\Desktop\\Git\\Freelance-chain\\contracts\\contracts\\JobContract.sol",
  "compiler": {
    "name": "solc",
    "version": "0.8.19+commit.7dd6d404.Emscripten.clang"
  },
  "schemaVersion": "3.4.16",
  "updatedAt": "2025-05-15T08:43:42.763Z",
  "networkType": "ethereum",
  "devdoc": {
    "kind": "dev",
    "methods": {},
    "version": 1
  },
  "userdoc": {
    "kind": "user",
    "methods": {},
    "version": 1
  }
}