{
    "_format": "hh-sol-artifact-1",
    "contractName": "JobContract",
    "sourceName": "contracts/JobContract.sol",
    "abi": [
        {
            "inputs": [],
            "stateMutability": "nonpayable",
            "type": "constructor"
        },
        {
            "anonymous": false,
            "inputs": [
                {
                    "indexed": false,
                    "internalType": "uint256",
                    "name": "contractId",
                    "type": "uint256"
                }
            ],
            "name": "ContractCompleted",
            "type": "event"
        },
        {
            "anonymous": false,
            "inputs": [
                {
                    "indexed": false,
                    "internalType": "uint256",
                    "name": "contractId",
                    "type": "uint256"
                }
            ],
            "name": "ContractCreated",
            "type": "event"
        },
        {
            "anonymous": false,
            "inputs": [
                {
                    "indexed": false,
                    "internalType": "uint256",
                    "name": "contractId",
                    "type": "uint256"
                },
                {
                    "indexed": false,
                    "internalType": "address",
                    "name": "raisedBy",
                    "type": "address"
                },
                {
                    "indexed": false,
                    "internalType": "uint256",
                    "name": "fee",
                    "type": "uint256"
                }
            ],
            "name": "DisputeRaised",
            "type": "event"
        },
        {
            "anonymous": false,
            "inputs": [
                {
                    "indexed": false,
                    "internalType": "uint256",
                    "name": "contractId",
                    "type": "uint256"
                },
                {
                    "indexed": false,
                    "internalType": "uint256",
                    "name": "amount",
                    "type": "uint256"
                }
            ],
            "name": "FundsDeposited",
            "type": "event"
        },
        {
            "anonymous": false,
            "inputs": [
                {
                    "indexed": false,
                    "internalType": "uint256",
                    "name": "contractId",
                    "type": "uint256"
                },
                {
                    "indexed": false,
                    "internalType": "uint256",
                    "name": "amount",
                    "type": "uint256"
                },
                {
                    "indexed": false,
                    "internalType": "address",
                    "name": "recipient",
                    "type": "address"
                }
            ],
            "name": "PaymentReleased",
            "type": "event"
        },
        {
            "anonymous": false,
            "inputs": [
                {
                    "indexed": false,
                    "internalType": "uint256",
                    "name": "contractId",
                    "type": "uint256"
                },
                {
                    "indexed": false,
                    "internalType": "uint256",
                    "name": "amount",
                    "type": "uint256"
                },
                {
                    "indexed": false,
                    "internalType": "address",
                    "name": "recipient",
                    "type": "address"
                }
            ],
            "name": "RefundIssued",
            "type": "event"
        },
        {
            "anonymous": false,
            "inputs": [
                {
                    "indexed": false,
                    "internalType": "uint256",
                    "name": "contractId",
                    "type": "uint256"
                },
                {
                    "indexed": false,
                    "internalType": "address",
                    "name": "signer",
                    "type": "address"
                }
            ],
            "name": "Signed",
            "type": "event"
        },
        {
            "anonymous": false,
            "inputs": [
                {
                    "indexed": false,
                    "internalType": "uint256",
                    "name": "contractId",
                    "type": "uint256"
                },
                {
                    "indexed": false,
                    "internalType": "address",
                    "name": "approver",
                    "type": "address"
                }
            ],
            "name": "WorkApproved",
            "type": "event"
        },
        {
            "anonymous": false,
            "inputs": [
                {
                    "indexed": false,
                    "internalType": "uint256",
                    "name": "contractId",
                    "type": "uint256"
                },
                {
                    "indexed": false,
                    "internalType": "string",
                    "name": "workHash",
                    "type": "string"
                }
            ],
            "name": "WorkSubmitted",
            "type": "event"
        },
        {
            "inputs": [
                {
                    "internalType": "uint256",
                    "name": "_contractId",
                    "type": "uint256"
                }
            ],
            "name": "approveWork",
            "outputs": [],
            "stateMutability": "nonpayable",
            "type": "function"
        },
        {
            "inputs": [
                {
                    "internalType": "uint256",
                    "name": "",
                    "type": "uint256"
                }
            ],
            "name": "contracts",
            "outputs": [
                {
                    "internalType": "address",
                    "name": "client",
                    "type": "address"
                },
                {
                    "internalType": "address",
                    "name": "freelancer",
                    "type": "address"
                },
                {
                    "internalType": "uint256",
                    "name": "bidAmount",
                    "type": "uint256"
                },
                {
                    "internalType": "uint256",
                    "name": "deadline",
                    "type": "uint256"
                },
                {
                    "internalType": "string",
                    "name": "jobTitle",
                    "type": "string"
                },
                {
                    "internalType": "string",
                    "name": "jobDescription",
                    "type": "string"
                },
                {
                    "internalType": "enum JobContract.Status",
                    "name": "status",
                    "type": "uint8"
                },
                {
                    "internalType": "bool",
                    "name": "clientApproved",
                    "type": "bool"
                },
                {
                    "internalType": "bool",
                    "name": "freelancerApproved",
                    "type": "bool"
                },
                {
                    "internalType": "string",
                    "name": "workSubmissionHash",
                    "type": "string"
                },
                {
                    "internalType": "uint256",
                    "name": "fundsDeposited",
                    "type": "uint256"
                }
            ],
            "stateMutability": "view",
            "type": "function"
        },
        {
            "inputs": [
                {
                    "internalType": "address",
                    "name": "_freelancer",
                    "type": "address"
                },
                {
                    "internalType": "uint256",
                    "name": "_bidAmount",
                    "type": "uint256"
                },
                {
                    "internalType": "uint256",
                    "name": "_deadline",
                    "type": "uint256"
                },
                {
                    "internalType": "string",
                    "name": "_jobTitle",
                    "type": "string"
                },
                {
                    "internalType": "string",
                    "name": "_jobDescription",
                    "type": "string"
                }
            ],
            "name": "createContract",
            "outputs": [
                {
                    "internalType": "uint256",
                    "name": "",
                    "type": "uint256"
                }
            ],
            "stateMutability": "nonpayable",
            "type": "function"
        },
        {
            "inputs": [
                {
                    "internalType": "uint256",
                    "name": "_contractId",
                    "type": "uint256"
                }
            ],
            "name": "depositFunds",
            "outputs": [],
            "stateMutability": "payable",
            "type": "function"
        },
        {
            "inputs": [],
            "name": "disputeFee",
            "outputs": [
                {
                    "internalType": "uint256",
                    "name": "",
                    "type": "uint256"
                }
            ],
            "stateMutability": "view",
            "type": "function"
        },
        {
            "inputs": [
                {
                    "internalType": "uint256",
                    "name": "",
                    "type": "uint256"
                }
            ],
            "name": "escrowBalances",
            "outputs": [
                {
                    "internalType": "uint256",
                    "name": "",
                    "type": "uint256"
                }
            ],
            "stateMutability": "view",
            "type": "function"
        },
        {
            "inputs": [
                {
                    "internalType": "uint256",
                    "name": "_contractId",
                    "type": "uint256"
                }
            ],
            "name": "getContract",
            "outputs": [
                {
                    "internalType": "address",
                    "name": "client",
                    "type": "address"
                },
                {
                    "internalType": "address",
                    "name": "freelancer",
                    "type": "address"
                },
                {
                    "internalType": "uint256",
                    "name": "bidAmount",
                    "type": "uint256"
                },
                {
                    "internalType": "uint256",
                    "name": "deadline",
                    "type": "uint256"
                },
                {
                    "internalType": "string",
                    "name": "jobTitle",
                    "type": "string"
                },
                {
                    "internalType": "string",
                    "name": "jobDescription",
                    "type": "string"
                },
                {
                    "internalType": "enum JobContract.Status",
                    "name": "status",
                    "type": "uint8"
                },
                {
                    "internalType": "string",
                    "name": "workSubmissionHash",
                    "type": "string"
                },
                {
                    "internalType": "uint256",
                    "name": "fundsDeposited",
                    "type": "uint256"
                }
            ],
            "stateMutability": "view",
            "type": "function"
        },
        {
            "inputs": [],
            "name": "owner",
            "outputs": [
                {
                    "internalType": "address",
                    "name": "",
                    "type": "address"
                }
            ],
            "stateMutability": "view",
            "type": "function"
        },
        {
            "inputs": [
                {
                    "internalType": "uint256",
                    "name": "_contractId",
                    "type": "uint256"
                }
            ],
            "name": "raiseDispute",
            "outputs": [],
            "stateMutability": "payable",
            "type": "function"
        },
        {
            "inputs": [
                {
                    "internalType": "uint256",
                    "name": "_contractId",
                    "type": "uint256"
                }
            ],
            "name": "requestRefund",
            "outputs": [],
            "stateMutability": "nonpayable",
            "type": "function"
        },
        {
            "inputs": [
                {
                    "internalType": "uint256",
                    "name": "_contractId",
                    "type": "uint256"
                },
                {
                    "internalType": "uint256",
                    "name": "clientShare",
                    "type": "uint256"
                },
                {
                    "internalType": "uint256",
                    "name": "freelancerShare",
                    "type": "uint256"
                }
            ],
            "name": "resolveDispute",
            "outputs": [],
            "stateMutability": "nonpayable",
            "type": "function"
        },
        {
            "inputs": [
                {
                    "internalType": "uint256",
                    "name": "_newFee",
                    "type": "uint256"
                }
            ],
            "name": "setDisputeFee",
            "outputs": [],
            "stateMutability": "nonpayable",
            "type": "function"
        },
        {
            "inputs": [
                {
                    "internalType": "uint256",
                    "name": "_contractId",
                    "type": "uint256"
                }
            ],
            "name": "signContract",
            "outputs": [],
            "stateMutability": "nonpayable",
            "type": "function"
        },
        {
            "inputs": [
                {
                    "internalType": "uint256",
                    "name": "_contractId",
                    "type": "uint256"
                },
                {
                    "internalType": "string",
                    "name": "_workHash",
                    "type": "string"
                }
            ],
            "name": "submitWork",
            "outputs": [],
            "stateMutability": "nonpayable",
            "type": "function"
        },
        {
            "inputs": [],
            "name": "withdrawStuckFunds",
            "outputs": [],
            "stateMutability": "nonpayable",
            "type": "function"
        }
    ],
    "bytecode": "0x6080806040523461003357662386f26fc10000600255600180546001600160a01b03191633179055611d0590816100398239f35b600080fdfe6080604052600436101561001257600080fd5b60003560e01c8063064da1831461135757806317299c04146113295780633b76594d146111d65780633d01e0fa14610f4d5780633fabe74f14610d0b57806343ebf45a14610cdf578063474da79a14610be45780636ebc8c8614610a825780638da5cb5b14610a595780639537e8d1146108be578063a4b2409e14610666578063a5c1674e14610478578063b9ce896b1461045a578063c5b60a48146103e15763da8accf9146100c157600080fd5b346103dc5760403660031901126103dc57602467ffffffffffffffff60043582358281116103dc576100f79036906004016119f9565b9161010182611a40565b50546001600160a01b0394908516331480156103bf575b61012190611c07565b61012a83611a40565b50916001958684015416330361037b57600683019260ff845416600681101561036657600203610322578551156102de576007019185519182116102ca57506101738254611a8e565b601f811161027f575b50602095601f8211600114610200578180917f3822c71b106c7c1dabf7f076e68c9bd98c45d0cd0d073f4dcdaf422a0fe55847986000936101f5575b501b916000199060031b1c19161790555b600360ff198254161790556101f06040519283928352604060208401526040830190611b6e565b0390a1005b8801519250386101b8565b90601f1981169683600052806000209060005b8981106102695750827f3822c71b106c7c1dabf7f076e68c9bd98c45d0cd0d073f4dcdaf422a0fe558479910610250575b5050811b0190556101c9565b87015160001960f88460031b161c191690553880610244565b8882015183559184019160209182019101610213565b826000526020600020601f830160051c810191602084106102c0575b601f0160051c019087905b8281106102b457505061017c565b600081550187906102a6565b909150819061029b565b634e487b7160e01b60009081526041600452fd5b60405162461bcd60e51b8152602060048201526019818501527f576f726b20686173682063616e6e6f7420626520656d707479000000000000006044820152606490fd5b60405162461bcd60e51b8152602060048201526019818501527f436f6e7472616374206e6f742066756c6c79207369676e6564000000000000006044820152606490fd5b83634e487b7160e01b60005260216004526000fd5b60405162461bcd60e51b815260206004820152601f818401527f4f6e6c7920667265656c616e6365722063616e207375626d697420776f726b006044820152606490fd5b506101218560016103cf86611a40565b5001541633149050610118565b600080fd5b346103dc5760003660031901126103dc57600080808060018060a01b036001541661040d813314611bbb565b47905af1610419611c53565b501561042157005b60405162461bcd60e51b815260206004820152601160248201527015da5d1a191c985dd85b0819985a5b1959607a1b6044820152606490fd5b346103dc5760003660031901126103dc576020600254604051908152f35b60203660031901126103dc5760043561049081611a40565b50546001600160a01b0390811633148015610649575b6104af90611c07565b600254340361060c576104c182611a40565b50906006820180549260ff84169060068210156105f6576104e760046003931415611c83565b015462093a8081018091116105e05742116105a257600080809381936005889760ff19161790553490600154165af161051e611c53565b501561055d5760607fe0e58e9cc5ed7ef092d3e14cff6136d23ebf75a16cf3c8257ef8804811d8b0f391604051908152336020820152346040820152a1005b60405162461bcd60e51b815260206004820152601b60248201527f4469737075746520666565207472616e73666572206661696c656400000000006044820152606490fd5b60405162461bcd60e51b8152602060048201526016602482015275111a5cdc1d5d19481c195c9a5bd908195e1c1a5c995960521b6044820152606490fd5b634e487b7160e01b600052601160045260246000fd5b634e487b7160e01b600052602160045260246000fd5b60405162461bcd60e51b8152602060048201526015602482015274496e636f727265637420646973707574652066656560581b6044820152606490fd5b506104af81600161065985611a40565b50015416331490506104a6565b346103dc576020806003193601126103dc576004359061068582611a40565b50546001600160a01b0392908316331480156108a1575b6106a590611c07565b6106ae81611a40565b509280845416330361085c57600684019360ff85541660068110156105f65760046106da911415611c83565b6003810154421115610821578260005260038452604060002054156107e7578260005260038452604060002094600086549655600080808089878754165af1610721611c53565b50156107a957805460ff19166004179055546040805184815260208101969096526001600160a01b039190921616908401527f6aafa2babf7b7b7142ff5c7ff71f2b5f78e2243167a26d6b8a7f70936e76923e927f4db193d7c1bdc730f02a0a161fa6e661f6415394ac7ec66253d2e8c7fad18b309080606081015b0390a1604051908152a1005b60405162461bcd60e51b81526004810186905260166024820152751499599d5b99081d1c985b9cd9995c8819985a5b195960521b6044820152606490fd5b60405162461bcd60e51b8152600481018590526012602482015271139bc8199d5b991cc81d1bc81c99599d5b9960721b6044820152606490fd5b60405162461bcd60e51b8152600481018590526013602482015272111958591b1a5b99481b9bdd081c185cdcd959606a1b6044820152606490fd5b60405162461bcd60e51b815260048101849052601e60248201527f4f6e6c7920636c69656e742063616e207265717565737420726566756e6400006044820152606490fd5b506106a58360016108b184611a40565b500154163314905061069c565b346103dc5760203660031901126103dc576004356108db81611a40565b50546001600160a01b0390811633148015610a3c575b6108fa90611c07565b61090382611a40565b509081541633146000146109fd576008810154156109b8577f80bc357386c693c2d6ad5938af6765eacd7d7790c17e39c014ab30def639416591600682816101f0940161010061ff00198254161790555b01805460ff8160081c168080916109ab575b1561098f575050805460ff191660021790555b6040805191825233602083015290918291820190565b61099b575b5050610979565b60ff191660011790558380610994565b5060ff8260101c16610966565b60405162461bcd60e51b815260206004820152601f60248201527f436c69656e74206d757374206465706f7369742066756e6473206669727374006044820152606490fd5b7f80bc357386c693c2d6ad5938af6765eacd7d7790c17e39c014ab30def639416591600682816101f094016201000062ff000019825416179055610954565b506108fa816001610a4c85611a40565b50015416331490506108f1565b346103dc5760003660031901126103dc576001546040516001600160a01b039091168152602090f35b346103dc5760203660031901126103dc57610a9e600435611a40565b5060405190610aac8261199e565b60018060a01b03908181541683528160018201541691602084019283526002820154936040810194855260038301549160608201928352610aef60048501611ac8565b60808301908152610b0260058601611ac8565b60a0840190815260068601549560ff87169260c086019360068110156105f657845260ff8860081c16151560e087015260ff6101009860101c16151588870152610b4e60078301611ac8565b9480600861012094858a0198895201549761014081019889525116995116995196519051925193519460068610156105f657519551966040519a8b9a8b5260208b015260408a015260608901528060808901528701610bac91611b6e565b86810360a0880152610bbd91611b6e565b9060c08601610bcb91611bae565b84810360e0860152610bdc91611b6e565b918301520390f35b346103dc5760203660031901126103dc576004356000548110156103dc57610c0b90611a40565b5060018060a01b03808254169060018301541691610cd460028201549160038101549060ff610c9d610c3f60048401611ac8565b610c8f610c4e60058601611ac8565b916006860154966008610c6360078901611ac8565b970154996040519c8d9c8d5260208d015260408c015260608b01526101608060808c01528a0190611b6e565b9088820360a08a0152611b6e565b92610cad60c08801838316611bae565b818160081c16151560e088015260101c161515610100860152848203610120860152611b6e565b906101408301520390f35b346103dc5760203660031901126103dc5760043560005260036020526020604060002054604051908152f35b346103dc5760603660031901126103dc5760043560249081359060443560018060a01b0390610d3f82600154163314611bbb565b610d4883611a40565b5091600683019260ff8454166006811015610f3857600503610ef45782860195868111610edf57856000526020966003885260406000205403610e9d5785600052600387526000604081205580610e42575b5082610dd9575b835460ff191660041784556040518581527f6aafa2babf7b7b7142ff5c7ff71f2b5f78e2243167a26d6b8a7f70936e76923e908790a1005b600080938193600183940154165af1610df0611c53565b5015610dfe57838080610da1565b60405162461bcd60e51b8152600481018490526019818601527f467265656c616e636572207061796d656e74206661696c6564000000000000006044820152606490fd5b600080808093868654165af1610e56611c53565b5015610e625787610d9a565b60405162461bcd60e51b8152600481018790526014818901527310db1a595b9d081c99599d5b990819985a5b195960621b6044820152606490fd5b606488886040519162461bcd60e51b83528160048401528201527f536861726573206d75737420657175616c20657363726f772062616c616e63656044820152fd5b87634e487b7160e01b60005260116004526000fd5b60405162461bcd60e51b8152602060048201526017818901527f436f6e7472616374206e6f7420696e20646973707574650000000000000000006044820152606490fd5b87634e487b7160e01b60005260216004526000fd5b346103dc576020806003193601126103dc5760043590610f6c82611a40565b50546001600160a01b0392908316331480156111b9575b610f8c90611c07565b610f9581611a40565b5092808454163303611174576006840160ff81541660068110156105f65760030361113a5782600052600384526040600020546002860154116110f557826000526003845260016040600020956000875497550190600080808089878754165af1610ffe611c53565b50156110b0578054600460ff199091161790555460408051848152602081019690965291166001600160a01b0316908401527f6aafa2babf7b7b7142ff5c7ff71f2b5f78e2243167a26d6b8a7f70936e76923e927fb398ec266cae176bd0a8d43b35200da0bb13c5620ad5e1663abdc3967a4ee50f90606090a1604080518281523360208201527f8995e1d0bb339962f8aaef0145457b5833c9c7fe952f6124ebe6708c0ad690de918190810161079d565b60405162461bcd60e51b815260048101869052601760248201527f5061796d656e74207472616e73666572206661696c65640000000000000000006044820152606490fd5b60405162461bcd60e51b815260048101859052601960248201527f496e73756666696369656e7420657363726f772066756e6473000000000000006044820152606490fd5b60405162461bcd60e51b815260048101859052601260248201527115dbdc9ac81b9bdd081cdd589b5a5d1d195960721b6044820152606490fd5b60405162461bcd60e51b815260048101849052601c60248201527f4f6e6c7920636c69656e742063616e20617070726f766520776f726b000000006044820152606490fd5b50610f8c8360016111c984611a40565b5001541633149050610f83565b6020806003193601126103dc57600435906111f082611a40565b5080546001600160a01b031633036112e4576002810154340361129f57600801805461125a57916040917f26679fa1f3868c950e9362f1106cf73f3318de0280e0411a3c68e4b463eadd4f93349055816000526003815234836000205582519182523490820152a1005b60405162461bcd60e51b815260048101839052601760248201527f46756e647320616c7265616479206465706f73697465640000000000000000006044820152606490fd5b60405162461bcd60e51b815260048101839052601d60248201527f4d757374206465706f7369742065786163742062696420616d6f756e740000006044820152606490fd5b60405162461bcd60e51b815260048101839052601d60248201527f4f6e6c7920636c69656e742063616e206465706f7369742066756e64730000006044820152606490fd5b346103dc5760203660031901126103dc5761134f60018060a01b03600154163314611bbb565b600435600255005b346103dc5760a03660031901126103dc576004356001600160a01b038116908190036103dc576024359060443560643567ffffffffffffffff81116103dc576113a49036906004016119f9565b9260843567ffffffffffffffff81116103dc576113c59036906004016119f9565b831561195957811561191457428311156118cf57604051946113e68661199e565b338652602086019485526040860192835260608601938452608086015260a0850152600060c0850152600060e085015260006101008501526040516020810181811067ffffffffffffffff8211176117275760405260008152610120850152600061014085015260005468010000000000000000811015611727578060016114719201600055611a40565b9390936118b957845184546001600160a01b03199081166001600160a01b03928316178655915160018601805490931691161790555160028301555160038201556080820151805190929067ffffffffffffffff8111611727576114d86004840154611a8e565b601f8111611872575b506020601f821160011461180657819293946000926117fb575b50508160011b916000199060031b1c19161760048301555b60a081015191825167ffffffffffffffff8111611727576115376005830154611a8e565b601f81116117b4575b506020601f8211600114611748578192939460009261173d575b50508160011b916000199060031b1c19161760058201555b6006810160c083015160068110156105f657815461ff0060e086015115159160ff62ff0000610100890151151560101b1694169062ffffff1916179160081b1617179055600781019161012081015192835167ffffffffffffffff8111611727576115dd8254611a8e565b601f81116116df575b506020601f821160011461167057908061014094939260089697600092611665575b50508160011b916000199060031b1c19161790555b015191015560005460001981019081116105e0576020907f9e3c7e008a15a3c864482ee94fd7315bcc9d0c04f3a9041ab922f816acffbe0682604051838152a1604051908152f35b015190508780611608565b601f198216958360005260206000209660005b8181106116c757509660019284926101409796956008999a106116ae575b505050811b01905561161d565b015160001960f88460031b161c191690558780806116a1565b83830151895560019098019760209384019301611683565b826000526020600020601f830160051c8101916020841061171d575b601f0160051c01905b81811061171157506115e6565b60008155600101611704565b90915081906116fb565b634e487b7160e01b600052604160045260246000fd5b01519050848061155a565b601f198216906005840160005260206000209160005b81811061179c57509583600195969710611783575b505050811b016005820155611572565b015160001960f88460031b161c19169055848080611773565b9192602060018192868b01518155019401920161175e565b600583016000526020600020601f830160051c8101602084106117f4575b601f830160051c820181106117e8575050611540565b600081556001016117d2565b50806117d2565b0151905084806114fb565b601f198216906004850160005260206000209160005b81811061185a57509583600195969710611841575b505050811b016004830155611513565b015160001960f88460031b161c19169055848080611831565b9192602060018192868b01518155019401920161181c565b600484016000526020600020601f830160051c8101602084106118b2575b601f830160051c820181106118a65750506114e1565b60008155600101611890565b5080611890565b634e487b7160e01b600052600060045260246000fd5b60405162461bcd60e51b815260206004820152601e60248201527f446561646c696e65206d75737420626520696e207468652066757475726500006044820152606490fd5b60405162461bcd60e51b815260206004820152601b60248201527f42696420616d6f756e74206d75737420626520706f73697469766500000000006044820152606490fd5b60405162461bcd60e51b815260206004820152601a60248201527f496e76616c696420667265656c616e63657220616464726573730000000000006044820152606490fd5b610160810190811067ffffffffffffffff82111761172757604052565b90601f8019910116810190811067ffffffffffffffff82111761172757604052565b67ffffffffffffffff811161172757601f01601f191660200190565b81601f820112156103dc57803590611a10826119dd565b92611a1e60405194856119bb565b828452602083830101116103dc57816000926020809301838601378301015290565b906000918254811015611a7a57600990838052027f290decd9548b62a8d60345a988386fc84ba6bc95484008f6362f93160ef3e563019190565b634e487b7160e01b83526032600452602483fd5b90600182811c92168015611abe575b6020831014611aa857565b634e487b7160e01b600052602260045260246000fd5b91607f1691611a9d565b9060405191826000825492611adc84611a8e565b908184526001948581169081600014611b4b5750600114611b08575b5050611b06925003836119bb565b565b9093915060005260209081600020936000915b818310611b33575050611b0693508201013880611af8565b85548884018501529485019487945091830191611b1b565b915050611b0694506020925060ff191682840152151560051b8201013880611af8565b919082519283825260005b848110611b9a575050826000602080949584010152601f8019910116010190565b602081830181015184830182015201611b79565b9060068210156105f65752565b15611bc257565b60405162461bcd60e51b815260206004820152601860248201527f4f6e6c79206f776e65722063616e2063616c6c207468697300000000000000006044820152606490fd5b15611c0e57565b60405162461bcd60e51b815260206004820152601c60248201527f4e6f74206120706172747920746f207468697320636f6e7472616374000000006044820152606490fd5b3d15611c7e573d90611c64826119dd565b91611c7260405193846119bb565b82523d6000602084013e565b606090565b15611c8a57565b60405162461bcd60e51b815260206004820152601a60248201527f436f6e747261637420616c726561647920636f6d706c657465640000000000006044820152606490fdfea2646970667358221220b89ae6875f0af584345a85db7163b3db7f2bd80019174b12a02856bdcce1901464736f6c63430008140033",
    "linkReferences": {},
    "deployedLinkReferences": {}
}